{
  "_format": "hh-sol-artifact-1",
  "contractName": "Derive",
  "sourceName": "contracts/Derive.sol",
  "abi": [
    {
      "anonymous": false,
      "inputs": [
        {
          "indexed": false,
          "internalType": "bytes32",
          "name": "resourceId",
          "type": "bytes32"
        },
        {
          "indexed": false,
          "internalType": "uint256",
          "name": "tokenId",
          "type": "uint256"
        }
      ],
      "name": "AccessAdded",
      "type": "event"
    },
    {
      "anonymous": false,
      "inputs": [
        {
          "indexed": false,
          "internalType": "address",
          "name": "owner",
          "type": "address"
        },
        {
          "indexed": false,
          "internalType": "uint256",
          "name": "tokenId",
          "type": "uint256"
        },
        {
          "indexed": false,
          "internalType": "string",
          "name": "name",
          "type": "string"
        }
      ],
      "name": "Creation",
      "type": "event"
    },
    {
      "anonymous": false,
      "inputs": [
        {
          "indexed": false,
          "internalType": "address",
          "name": "prevOwner",
          "type": "address"
        },
        {
          "indexed": false,
          "internalType": "uint256",
          "name": "tokenId",
          "type": "uint256"
        }
      ],
      "name": "KeyReclaimed",
      "type": "event"
    },
    {
      "anonymous": false,
      "inputs": [
        {
          "indexed": false,
          "internalType": "bytes32",
          "name": "resourceId",
          "type": "bytes32"
        },
        {
          "indexed": false,
          "internalType": "uint256",
          "name": "tokenId",
          "type": "uint256"
        }
      ],
      "name": "RemovedFromList",
      "type": "event"
    },
    {
      "anonymous": false,
      "inputs": [
        {
          "indexed": false,
          "internalType": "address",
          "name": "owner",
          "type": "address"
        },
        {
          "indexed": false,
          "internalType": "bytes32",
          "name": "resourceId",
          "type": "bytes32"
        },
        {
          "indexed": false,
          "internalType": "string",
          "name": "name",
          "type": "string"
        },
        {
          "indexed": false,
          "internalType": "uint256",
          "name": "tokenId",
          "type": "uint256"
        },
        {
          "indexed": false,
          "internalType": "string",
          "name": "dataToEncryptHash",
          "type": "string"
        }
      ],
      "name": "ResourceAdded",
      "type": "event"
    },
    {
      "anonymous": false,
      "inputs": [
        {
          "indexed": false,
          "internalType": "address",
          "name": "owner",
          "type": "address"
        },
        {
          "indexed": false,
          "internalType": "bytes32",
          "name": "resourceId",
          "type": "bytes32"
        }
      ],
      "name": "ResourceRemoved",
      "type": "event"
    },
    {
      "anonymous": false,
      "inputs": [
        {
          "indexed": true,
          "internalType": "address",
          "name": "from",
          "type": "address"
        },
        {
          "indexed": true,
          "internalType": "address",
          "name": "to",
          "type": "address"
        },
        {
          "indexed": true,
          "internalType": "uint256",
          "name": "id",
          "type": "uint256"
        }
      ],
      "name": "Transfer",
      "type": "event"
    },
    {
      "inputs": [
        {
          "internalType": "bytes32",
          "name": "resourceId",
          "type": "bytes32"
        },
        {
          "internalType": "uint256",
          "name": "tokenId",
          "type": "uint256"
        }
      ],
      "name": "addAccess",
      "outputs": [],
      "stateMutability": "nonpayable",
      "type": "function"
    },
    {
      "inputs": [
        {
          "internalType": "string",
          "name": "_name",
          "type": "string"
        },
        {
          "internalType": "string",
          "name": "_cid",
          "type": "string"
        },
        {
          "internalType": "uint256",
          "name": "tokenId",
          "type": "uint256"
        },
        {
          "internalType": "string",
          "name": "_dataToEncryptHash",
          "type": "string"
        }
      ],
      "name": "addResource",
      "outputs": [],
      "stateMutability": "nonpayable",
      "type": "function"
    },
    {
      "inputs": [
        {
          "internalType": "address",
          "name": "owner",
          "type": "address"
        }
      ],
      "name": "balanceOf",
      "outputs": [
        {
          "internalType": "uint256",
          "name": "balance",
          "type": "uint256"
        }
      ],
      "stateMutability": "view",
      "type": "function"
    },
    {
      "inputs": [
        {
          "internalType": "uint256",
          "name": "tokenId",
          "type": "uint256"
        }
      ],
      "name": "burn",
      "outputs": [],
      "stateMutability": "nonpayable",
      "type": "function"
    },
    {
      "inputs": [],
      "name": "counter",
      "outputs": [
        {
          "internalType": "uint256",
          "name": "",
          "type": "uint256"
        }
      ],
      "stateMutability": "view",
      "type": "function"
    },
    {
      "inputs": [
        {
          "internalType": "string",
          "name": "_name",
          "type": "string"
        }
      ],
      "name": "createNFT",
      "outputs": [],
      "stateMutability": "nonpayable",
      "type": "function"
    },
    {
      "inputs": [
        {
          "internalType": "string",
          "name": "name",
          "type": "string"
        },
        {
          "internalType": "string",
          "name": "cid",
          "type": "string"
        }
      ],
      "name": "getId",
      "outputs": [
        {
          "internalType": "bytes32",
          "name": "resourceId",
          "type": "bytes32"
        }
      ],
      "stateMutability": "pure",
      "type": "function"
    },
    {
      "inputs": [
        {
          "internalType": "bytes32",
          "name": "resourceId",
          "type": "bytes32"
        }
      ],
      "name": "getResource",
      "outputs": [
        {
          "components": [
            {
              "internalType": "string",
              "name": "name",
              "type": "string"
            },
            {
              "internalType": "string",
              "name": "cid",
              "type": "string"
            },
            {
              "internalType": "address",
              "name": "owner",
              "type": "address"
            },
            {
              "internalType": "string",
              "name": "dataToEncryptHash",
              "type": "string"
            }
          ],
          "internalType": "struct Derive.Resource",
          "name": "",
          "type": "tuple"
        }
      ],
      "stateMutability": "view",
      "type": "function"
    },
    {
      "inputs": [
        {
          "internalType": "address",
          "name": "user",
          "type": "address"
        },
        {
          "internalType": "bytes32",
          "name": "resourceId",
          "type": "bytes32"
        }
      ],
      "name": "hasAccess",
      "outputs": [
        {
          "internalType": "bool",
          "name": "",
          "type": "bool"
        }
      ],
      "stateMutability": "view",
      "type": "function"
    },
    {
      "inputs": [
        {
          "internalType": "uint256",
          "name": "tokenId",
          "type": "uint256"
        }
      ],
      "name": "ownerOf",
      "outputs": [
        {
          "internalType": "address",
          "name": "owner",
          "type": "address"
        }
      ],
      "stateMutability": "view",
      "type": "function"
    },
    {
      "inputs": [
        {
          "internalType": "uint256",
          "name": "tokenId",
          "type": "uint256"
        }
      ],
      "name": "reclaimKey",
      "outputs": [],
      "stateMutability": "nonpayable",
      "type": "function"
    },
    {
      "inputs": [
        {
          "internalType": "bytes32",
          "name": "resourceId",
          "type": "bytes32"
        },
        {
          "internalType": "uint256",
          "name": "tokenId",
          "type": "uint256"
        }
      ],
      "name": "removeNFTFromList",
      "outputs": [],
      "stateMutability": "nonpayable",
      "type": "function"
    },
    {
      "inputs": [
        {
          "internalType": "bytes32",
          "name": "resourceId",
          "type": "bytes32"
        }
      ],
      "name": "removeResource",
      "outputs": [],
      "stateMutability": "nonpayable",
      "type": "function"
    },
    {
      "inputs": [
        {
          "internalType": "address",
          "name": "receiver",
          "type": "address"
        },
        {
          "internalType": "uint256",
          "name": "tokenId",
          "type": "uint256"
        }
      ],
      "name": "share",
      "outputs": [],
      "stateMutability": "nonpayable",
      "type": "function"
    },
    {
      "inputs": [
        {
          "internalType": "bytes32",
          "name": "resourceId",
          "type": "bytes32"
        }
      ],
      "name": "showAccess",
      "outputs": [
        {
          "internalType": "uint256[]",
          "name": "",
          "type": "uint256[]"
        }
      ],
      "stateMutability": "view",
      "type": "function"
    },
    {
      "inputs": [
        {
          "internalType": "bytes4",
          "name": "interfaceId",
          "type": "bytes4"
        }
      ],
      "name": "supportInterface",
      "outputs": [
        {
          "internalType": "bool",
          "name": "",
          "type": "bool"
        }
      ],
      "stateMutability": "pure",
      "type": "function"
    }
  ],
  "bytecode": "0x6080604052348015600f57600080fd5b5061367d8061001f6000396000f3fe608060405234801561001057600080fd5b50600436106101005760003560e01c80637bedf39011610097578063ab21fd0c11610066578063ab21fd0c146102cf578063b4d6af8a146102eb578063da2ed03e1461031b578063ded6338b1461033757610100565b80637bedf390146102375780637d294e62146102535780637e0261c8146102835780638158e13a146102b357610100565b80636352211e116100d35780636352211e1461018b5780636d1c3b7d146101bb57806370a08231146101d757806375e79be61461020757610100565b80630cc2d7811461010557806342966c68146101355780635d75cd901461015157806361bc221a1461016d575b600080fd5b61011f600480360381019061011a91906121ea565b610353565b60405161012c91906122df565b60405180910390f35b61014f600480360381019061014a919061232d565b610464565b005b61016b600480360381019061016691906121ea565b6105f4565b005b6101756107e8565b6040516101829190612369565b60405180910390f35b6101a560048036038101906101a0919061232d565b6107ee565b6040516101b291906123c5565b60405180910390f35b6101d560048036038101906101d09190612526565b610899565b005b6101f160048036038101906101ec919061260d565b610b67565b6040516101fe9190612369565b60405180910390f35b610221600480360381019061021c9190612692565b610c1e565b60405161022e91906126da565b60405180910390f35b610251600480360381019061024c91906126f5565b610cf0565b005b61026d60048036038101906102689190612735565b610f53565b60405161027a91906126da565b60405180910390f35b61029d60048036038101906102989190612775565b61130e565b6040516102aa91906127fc565b60405180910390f35b6102cd60048036038101906102c891906126f5565b611341565b005b6102e960048036038101906102e4919061232d565b6115ae565b005b610305600480360381019061030091906121ea565b611741565b6040516103129190612916565b60405180910390f35b61033560048036038101906103309190612938565b6119c9565b005b610351600480360381019061034c9190612981565b611b3e565b005b6060813373ffffffffffffffffffffffffffffffffffffffff166004600083815260200190815260200160002060020160009054906101000a900473ffffffffffffffffffffffffffffffffffffffff1673ffffffffffffffffffffffffffffffffffffffff16146103fa576040517f08c379a00000000000000000000000000000000000000000000000000000000081526004016103f190612a1e565b60405180910390fd5b6005600084815260200190815260200160002080548060200260200160405190810160405280929190818152602001828054801561045757602002820191906000526020600020905b815481526020019060010190808311610443575b5050505050915050919050565b600080600083815260200190815260200160002060009054906101000a900473ffffffffffffffffffffffffffffffffffffffff169050600073ffffffffffffffffffffffffffffffffffffffff168173ffffffffffffffffffffffffffffffffffffffff160361050a576040517f08c379a000000000000000000000000000000000000000000000000000000000815260040161050190612a8a565b60405180910390fd5b600160008273ffffffffffffffffffffffffffffffffffffffff1673ffffffffffffffffffffffffffffffffffffffff168152602001908152602001600020600081548092919061055a90612ad9565b919050555060008083815260200190815260200160002060006101000a81549073ffffffffffffffffffffffffffffffffffffffff021916905581600073ffffffffffffffffffffffffffffffffffffffff168273ffffffffffffffffffffffffffffffffffffffff167fddf252ad1be2c89b69c2b068fc378daa952ba7f163c4a11628f55a4df523b3ef60405160405180910390a45050565b803373ffffffffffffffffffffffffffffffffffffffff166004600083815260200190815260200160002060020160009054906101000a900473ffffffffffffffffffffffffffffffffffffffff1673ffffffffffffffffffffffffffffffffffffffff1614610699576040517f08c379a000000000000000000000000000000000000000000000000000000000815260040161069090612a1e565b60405180910390fd5b600073ffffffffffffffffffffffffffffffffffffffff166004600084815260200190815260200160002060020160009054906101000a900473ffffffffffffffffffffffffffffffffffffffff1673ffffffffffffffffffffffffffffffffffffffff161461073e576040517f08c379a000000000000000000000000000000000000000000000000000000000815260040161073590612b4e565b60405180910390fd5b60046000838152602001908152602001600020600080820160006107629190612105565b6001820160006107729190612105565b6002820160006101000a81549073ffffffffffffffffffffffffffffffffffffffff02191690556003820160006107a99190612105565b50507f585465d02be52545e8e649e9e0e4c4d0462a976505db8178677bb178a15acfc933836040516107dc929190612b6e565b60405180910390a15050565b60025481565b600080600083815260200190815260200160002060009054906101000a900473ffffffffffffffffffffffffffffffffffffffff169050600073ffffffffffffffffffffffffffffffffffffffff168173ffffffffffffffffffffffffffffffffffffffff1603610894576040517f08c379a000000000000000000000000000000000000000000000000000000000815260040161088b90612be3565b60405180910390fd5b919050565b813373ffffffffffffffffffffffffffffffffffffffff166003600083815260200190815260200160002060020160009054906101000a900473ffffffffffffffffffffffffffffffffffffffff1673ffffffffffffffffffffffffffffffffffffffff161461093e576040517f08c379a000000000000000000000000000000000000000000000000000000000815260040161093590612c4f565b60405180910390fd5b60008533604051602001610953929190612ca8565b604051602081830303815290604052805190602001209050600073ffffffffffffffffffffffffffffffffffffffff166004600083815260200190815260200160002060020160009054906101000a900473ffffffffffffffffffffffffffffffffffffffff1673ffffffffffffffffffffffffffffffffffffffff1614610a10576040517f08c379a0000000000000000000000000000000000000000000000000000000008152600401610a0790612b4e565b60405180910390fd5b60405180608001604052808781526020018681526020013373ffffffffffffffffffffffffffffffffffffffff16815260200184815250600460008381526020019081526020016000206000820151816000019081610a6f9190612ee4565b506020820151816001019081610a859190612ee4565b5060408201518160020160006101000a81548173ffffffffffffffffffffffffffffffffffffffff021916908373ffffffffffffffffffffffffffffffffffffffff1602179055506060820151816003019081610ae29190612ee4565b50905050600560008281526020019081526020016000208490806001815401808255809150506001900390600052602060002001600090919091909150557f603729a0d3880fd33bb0fe1c86f848f2e388e1f7097901c15871f75dc2bed0313382888787604051610b57959493929190612fb6565b60405180910390a1505050505050565b60008073ffffffffffffffffffffffffffffffffffffffff168273ffffffffffffffffffffffffffffffffffffffff1603610bd7576040517f08c379a0000000000000000000000000000000000000000000000000000000008152600401610bce90613063565b60405180910390fd5b600160008373ffffffffffffffffffffffffffffffffffffffff1673ffffffffffffffffffffffffffffffffffffffff168152602001908152602001600020549050919050565b60007f13f2a32f000000000000000000000000000000000000000000000000000000007bffffffffffffffffffffffffffffffffffffffffffffffffffffffff1916827bffffffffffffffffffffffffffffffffffffffffffffffffffffffff19161480610ce957507f75e79be6000000000000000000000000000000000000000000000000000000007bffffffffffffffffffffffffffffffffffffffffffffffffffffffff1916827bffffffffffffffffffffffffffffffffffffffffffffffffffffffff1916145b9050919050565b803373ffffffffffffffffffffffffffffffffffffffff166003600083815260200190815260200160002060020160009054906101000a900473ffffffffffffffffffffffffffffffffffffffff1673ffffffffffffffffffffffffffffffffffffffff1614610d95576040517f08c379a0000000000000000000000000000000000000000000000000000000008152600401610d8c90612c4f565b60405180910390fd5b823373ffffffffffffffffffffffffffffffffffffffff166004600083815260200190815260200160002060020160009054906101000a900473ffffffffffffffffffffffffffffffffffffffff1673ffffffffffffffffffffffffffffffffffffffff1614610e3a576040517f08c379a0000000000000000000000000000000000000000000000000000000008152600401610e3190612a1e565b60405180910390fd5b60005b6005600086815260200190815260200160002080549050811015610ed95783600560008781526020019081526020016000208281548110610e8157610e80613083565b5b906000526020600020015403610ecc576040517f08c379a0000000000000000000000000000000000000000000000000000000008152600401610ec3906130fe565b60405180910390fd5b8080600101915050610e3d565b50600560008581526020019081526020016000208390806001815401808255809150506001900390600052602060002001600090919091909150557f178e005ff95341d5f0934260c8c523d87a26152c34817d9cf4546305d9da430f8484604051610f4592919061311e565b60405180910390a150505050565b6000816001801561100857600073ffffffffffffffffffffffffffffffffffffffff166004600084815260200190815260200160002060020160009054906101000a900473ffffffffffffffffffffffffffffffffffffffff1673ffffffffffffffffffffffffffffffffffffffff1603611003576040517f08c379a0000000000000000000000000000000000000000000000000000000008152600401610ffa90613193565b60405180910390fd5b6110ae565b600073ffffffffffffffffffffffffffffffffffffffff166004600084815260200190815260200160002060020160009054906101000a900473ffffffffffffffffffffffffffffffffffffffff1673ffffffffffffffffffffffffffffffffffffffff16146110ad576040517f08c379a00000000000000000000000000000000000000000000000000000000081526004016110a490612b4e565b60405180910390fd5b5b600073ffffffffffffffffffffffffffffffffffffffff166004600086815260200190815260200160002060020160009054906101000a900473ffffffffffffffffffffffffffffffffffffffff1673ffffffffffffffffffffffffffffffffffffffff1603611153576040517f08c379a000000000000000000000000000000000000000000000000000000000815260040161114a90613193565b60405180910390fd5b600073ffffffffffffffffffffffffffffffffffffffff168573ffffffffffffffffffffffffffffffffffffffff16036111c2576040517f08c379a00000000000000000000000000000000000000000000000000000000081526004016111b990613063565b60405180910390fd5b8473ffffffffffffffffffffffffffffffffffffffff166004600086815260200190815260200160002060020160009054906101000a900473ffffffffffffffffffffffffffffffffffffffff1673ffffffffffffffffffffffffffffffffffffffff16036112345760019250611306565b60005b6005600086815260200190815260200160002080549050811015611300578573ffffffffffffffffffffffffffffffffffffffff1660008060056000898152602001908152602001600020848154811061129457611293613083565b5b9060005260206000200154815260200190815260200160002060009054906101000a900473ffffffffffffffffffffffffffffffffffffffff1673ffffffffffffffffffffffffffffffffffffffff16036112f3576001935050611306565b8080600101915050611237565b50600092505b505092915050565b600082826040516020016113239291906131b3565b60405160208183030381529060405280519060200120905092915050565b813373ffffffffffffffffffffffffffffffffffffffff166004600083815260200190815260200160002060020160009054906101000a900473ffffffffffffffffffffffffffffffffffffffff1673ffffffffffffffffffffffffffffffffffffffff16146113e6576040517f08c379a00000000000000000000000000000000000000000000000000000000081526004016113dd90612a1e565b60405180910390fd5b3373ffffffffffffffffffffffffffffffffffffffff1660008084815260200190815260200160002060009054906101000a900473ffffffffffffffffffffffffffffffffffffffff1673ffffffffffffffffffffffffffffffffffffffff161461145557611454826115ae565b5b60006005600085815260200190815260200160002080549050905060005b818110156115a657836005600087815260200190815260200160002082815481106114a1576114a0613083565b5b90600052602060002001540361159957600560008681526020019081526020016000206001836114d191906131ea565b815481106114e2576114e1613083565b5b906000526020600020015460056000878152602001908152602001600020828154811061151257611511613083565b5b9060005260206000200181905550600560008681526020019081526020016000208054806115435761154261321e565b5b600190038181906000526020600020016000905590557f1fe28afa538dc6a46f548a24f5452bb9b55587602a225d4a1fbc8701e27e11c7858560405161158a92919061311e565b60405180910390a150506115a9565b8080600101915050611473565b50505b505050565b803373ffffffffffffffffffffffffffffffffffffffff166003600083815260200190815260200160002060020160009054906101000a900473ffffffffffffffffffffffffffffffffffffffff1673ffffffffffffffffffffffffffffffffffffffff1614611653576040517f08c379a000000000000000000000000000000000000000000000000000000000815260040161164a90612c4f565b60405180910390fd5b600080600084815260200190815260200160002060009054906101000a900473ffffffffffffffffffffffffffffffffffffffff1690503373ffffffffffffffffffffffffffffffffffffffff168173ffffffffffffffffffffffffffffffffffffffff16036116f8576040517f08c379a00000000000000000000000000000000000000000000000000000000081526004016116ef90613299565b60405180910390fd5b611703813385611b4d565b7ff41ab3b4a359db16e2e65ab9559b37894ad1d115fcc09c02a96fe1dbf1620b1781846040516117349291906132b9565b60405180910390a1505050565b611749612145565b6117533383610f53565b15611989576004600083815260200190815260200160002060405180608001604052908160008201805461178690612d07565b80601f01602080910402602001604051908101604052809291908181526020018280546117b290612d07565b80156117ff5780601f106117d4576101008083540402835291602001916117ff565b820191906000526020600020905b8154815290600101906020018083116117e257829003601f168201915b5050505050815260200160018201805461181890612d07565b80601f016020809104026020016040519081016040528092919081815260200182805461184490612d07565b80156118915780601f1061186657610100808354040283529160200191611891565b820191906000526020600020905b81548152906001019060200180831161187457829003601f168201915b505050505081526020016002820160009054906101000a900473ffffffffffffffffffffffffffffffffffffffff1673ffffffffffffffffffffffffffffffffffffffff1673ffffffffffffffffffffffffffffffffffffffff16815260200160038201805461190090612d07565b80601f016020809104026020016040519081016040528092919081815260200182805461192c90612d07565b80156119795780601f1061194e57610100808354040283529160200191611979565b820191906000526020600020905b81548152906001019060200180831161195c57829003601f168201915b50505050508152505090506119c4565b6040517f08c379a00000000000000000000000000000000000000000000000000000000081526004016119bb9061332e565b60405180910390fd5b919050565b6000600260008154809291906119de9061334e565b9190505590506119ee3382611c85565b60405180608001604052808281526020018381526020013373ffffffffffffffffffffffffffffffffffffffff1681526020013373ffffffffffffffffffffffffffffffffffffffff1681525060036000838152602001908152602001600020600082015181600001556020820151816001019081611a6d9190612ee4565b5060408201518160020160006101000a81548173ffffffffffffffffffffffffffffffffffffffff021916908373ffffffffffffffffffffffffffffffffffffffff16021790555060608201518160030160006101000a81548173ffffffffffffffffffffffffffffffffffffffff021916908373ffffffffffffffffffffffffffffffffffffffff1602179055509050507fe649b25ea418284e682d98726ce07ccc7a6a926d3cdac495942354deca662743338284604051611b3293929190613396565b60405180910390a15050565b611b49338383611b4d565b5050565b611b58838383611e9b565b60008273ffffffffffffffffffffffffffffffffffffffff163b1480611c41575063150b7a0260e01b7bffffffffffffffffffffffffffffffffffffffffffffffffffffffff19168273ffffffffffffffffffffffffffffffffffffffff1663150b7a023386856040518463ffffffff1660e01b8152600401611bdd9392919061340b565b6020604051808303816000875af1158015611bfc573d6000803e3d6000fd5b505050506040513d601f19601f82011682018060405250810190611c20919061346a565b7bffffffffffffffffffffffffffffffffffffffffffffffffffffffff1916145b611c80576040517f08c379a0000000000000000000000000000000000000000000000000000000008152600401611c77906134e3565b60405180910390fd5b505050565b600073ffffffffffffffffffffffffffffffffffffffff168273ffffffffffffffffffffffffffffffffffffffff1603611cf4576040517f08c379a0000000000000000000000000000000000000000000000000000000008152600401611ceb9061354f565b60405180910390fd5b600073ffffffffffffffffffffffffffffffffffffffff1660008083815260200190815260200160002060009054906101000a900473ffffffffffffffffffffffffffffffffffffffff1673ffffffffffffffffffffffffffffffffffffffff1614611d95576040517f08c379a0000000000000000000000000000000000000000000000000000000008152600401611d8c906135bb565b60405180910390fd5b600160008373ffffffffffffffffffffffffffffffffffffffff1673ffffffffffffffffffffffffffffffffffffffff1681526020019081526020016000206000815480929190611de59061334e565b91905055508160008083815260200190815260200160002060006101000a81548173ffffffffffffffffffffffffffffffffffffffff021916908373ffffffffffffffffffffffffffffffffffffffff160217905550808273ffffffffffffffffffffffffffffffffffffffff16600073ffffffffffffffffffffffffffffffffffffffff167fddf252ad1be2c89b69c2b068fc378daa952ba7f163c4a11628f55a4df523b3ef60405160405180910390a45050565b60008082815260200190815260200160002060009054906101000a900473ffffffffffffffffffffffffffffffffffffffff1673ffffffffffffffffffffffffffffffffffffffff168373ffffffffffffffffffffffffffffffffffffffff1614611f3b576040517f08c379a0000000000000000000000000000000000000000000000000000000008152600401611f3290613627565b60405180910390fd5b600073ffffffffffffffffffffffffffffffffffffffff168273ffffffffffffffffffffffffffffffffffffffff1603611faa576040517f08c379a0000000000000000000000000000000000000000000000000000000008152600401611fa19061354f565b60405180910390fd5b600160008473ffffffffffffffffffffffffffffffffffffffff1673ffffffffffffffffffffffffffffffffffffffff1681526020019081526020016000206000815480929190611ffa90612ad9565b9190505550600160008373ffffffffffffffffffffffffffffffffffffffff1673ffffffffffffffffffffffffffffffffffffffff168152602001908152602001600020600081548092919061204f9061334e565b91905055508160008083815260200190815260200160002060006101000a81548173ffffffffffffffffffffffffffffffffffffffff021916908373ffffffffffffffffffffffffffffffffffffffff160217905550808273ffffffffffffffffffffffffffffffffffffffff168473ffffffffffffffffffffffffffffffffffffffff167fddf252ad1be2c89b69c2b068fc378daa952ba7f163c4a11628f55a4df523b3ef60405160405180910390a4505050565b50805461211190612d07565b6000825580601f106121235750612142565b601f0160209004906000526020600020908101906121419190612183565b5b50565b60405180608001604052806060815260200160608152602001600073ffffffffffffffffffffffffffffffffffffffff168152602001606081525090565b5b8082111561219c576000816000905550600101612184565b5090565b6000604051905090565b600080fd5b600080fd5b6000819050919050565b6121c7816121b4565b81146121d257600080fd5b50565b6000813590506121e4816121be565b92915050565b600060208284031215612200576121ff6121aa565b5b600061220e848285016121d5565b91505092915050565b600081519050919050565b600082825260208201905092915050565b6000819050602082019050919050565b6000819050919050565b61225681612243565b82525050565b6000612268838361224d565b60208301905092915050565b6000602082019050919050565b600061228c82612217565b6122968185612222565b93506122a183612233565b8060005b838110156122d25781516122b9888261225c565b97506122c483612274565b9250506001810190506122a5565b5085935050505092915050565b600060208201905081810360008301526122f98184612281565b905092915050565b61230a81612243565b811461231557600080fd5b50565b60008135905061232781612301565b92915050565b600060208284031215612343576123426121aa565b5b600061235184828501612318565b91505092915050565b61236381612243565b82525050565b600060208201905061237e600083018461235a565b92915050565b600073ffffffffffffffffffffffffffffffffffffffff82169050919050565b60006123af82612384565b9050919050565b6123bf816123a4565b82525050565b60006020820190506123da60008301846123b6565b92915050565b600080fd5b600080fd5b6000601f19601f8301169050919050565b7f4e487b7100000000000000000000000000000000000000000000000000000000600052604160045260246000fd5b612433826123ea565b810181811067ffffffffffffffff82111715612452576124516123fb565b5b80604052505050565b60006124656121a0565b9050612471828261242a565b919050565b600067ffffffffffffffff821115612491576124906123fb565b5b61249a826123ea565b9050602081019050919050565b82818337600083830152505050565b60006124c96124c484612476565b61245b565b9050828152602081018484840111156124e5576124e46123e5565b5b6124f08482856124a7565b509392505050565b600082601f83011261250d5761250c6123e0565b5b813561251d8482602086016124b6565b91505092915050565b600080600080608085870312156125405761253f6121aa565b5b600085013567ffffffffffffffff81111561255e5761255d6121af565b5b61256a878288016124f8565b945050602085013567ffffffffffffffff81111561258b5761258a6121af565b5b612597878288016124f8565b93505060406125a887828801612318565b925050606085013567ffffffffffffffff8111156125c9576125c86121af565b5b6125d5878288016124f8565b91505092959194509250565b6125ea816123a4565b81146125f557600080fd5b50565b600081359050612607816125e1565b92915050565b600060208284031215612623576126226121aa565b5b6000612631848285016125f8565b91505092915050565b60007fffffffff0000000000000000000000000000000000000000000000000000000082169050919050565b61266f8161263a565b811461267a57600080fd5b50565b60008135905061268c81612666565b92915050565b6000602082840312156126a8576126a76121aa565b5b60006126b68482850161267d565b91505092915050565b60008115159050919050565b6126d4816126bf565b82525050565b60006020820190506126ef60008301846126cb565b92915050565b6000806040838503121561270c5761270b6121aa565b5b600061271a858286016121d5565b925050602061272b85828601612318565b9150509250929050565b6000806040838503121561274c5761274b6121aa565b5b600061275a858286016125f8565b925050602061276b858286016121d5565b9150509250929050565b6000806040838503121561278c5761278b6121aa565b5b600083013567ffffffffffffffff8111156127aa576127a96121af565b5b6127b6858286016124f8565b925050602083013567ffffffffffffffff8111156127d7576127d66121af565b5b6127e3858286016124f8565b9150509250929050565b6127f6816121b4565b82525050565b600060208201905061281160008301846127ed565b92915050565b600081519050919050565b600082825260208201905092915050565b60005b83811015612851578082015181840152602081019050612836565b60008484015250505050565b600061286882612817565b6128728185612822565b9350612882818560208601612833565b61288b816123ea565b840191505092915050565b61289f816123a4565b82525050565b600060808301600083015184820360008601526128c2828261285d565b915050602083015184820360208601526128dc828261285d565b91505060408301516128f16040860182612896565b5060608301518482036060860152612909828261285d565b9150508091505092915050565b6000602082019050818103600083015261293081846128a5565b905092915050565b60006020828403121561294e5761294d6121aa565b5b600082013567ffffffffffffffff81111561296c5761296b6121af565b5b612978848285016124f8565b91505092915050565b60008060408385031215612998576129976121aa565b5b60006129a6858286016125f8565b92505060206129b785828601612318565b9150509250929050565b600082825260208201905092915050565b7f4e6f742061207265736f75726365206f776e6572000000000000000000000000600082015250565b6000612a086014836129c1565b9150612a13826129d2565b602082019050919050565b60006020820190508181036000830152612a37816129fb565b9050919050565b7f546f6b656e20646f6573206e6f74206578697374000000000000000000000000600082015250565b6000612a746014836129c1565b9150612a7f82612a3e565b602082019050919050565b60006020820190508181036000830152612aa381612a67565b9050919050565b7f4e487b7100000000000000000000000000000000000000000000000000000000600052601160045260246000fd5b6000612ae482612243565b915060008203612af757612af6612aaa565b5b600182039050919050565b7f5265736f7572636520616c726561647920657869737473000000000000000000600082015250565b6000612b386017836129c1565b9150612b4382612b02565b602082019050919050565b60006020820190508181036000830152612b6781612b2b565b9050919050565b6000604082019050612b8360008301856123b6565b612b9060208301846127ed565b9392505050565b7f4e6f742065786973740000000000000000000000000000000000000000000000600082015250565b6000612bcd6009836129c1565b9150612bd882612b97565b602082019050919050565b60006020820190508181036000830152612bfc81612bc0565b9050919050565b7f4e4654206973206e6f74206f776e656420627920796f75000000000000000000600082015250565b6000612c396017836129c1565b9150612c4482612c03565b602082019050919050565b60006020820190508181036000830152612c6881612c2c565b9050919050565b6000612c7a82612817565b612c8481856129c1565b9350612c94818560208601612833565b612c9d816123ea565b840191505092915050565b60006040820190508181036000830152612cc28185612c6f565b9050612cd160208301846123b6565b9392505050565b7f4e487b7100000000000000000000000000000000000000000000000000000000600052602260045260246000fd5b60006002820490506001821680612d1f57607f821691505b602082108103612d3257612d31612cd8565b5b50919050565b60008190508160005260206000209050919050565b60006020601f8301049050919050565b600082821b905092915050565b600060088302612d9a7fffffffffffffffffffffffffffffffffffffffffffffffffffffffffffffffff82612d5d565b612da48683612d5d565b95508019841693508086168417925050509392505050565b6000819050919050565b6000612de1612ddc612dd784612243565b612dbc565b612243565b9050919050565b6000819050919050565b612dfb83612dc6565b612e0f612e0782612de8565b848454612d6a565b825550505050565b600090565b612e24612e17565b612e2f818484612df2565b505050565b5b81811015612e5357612e48600082612e1c565b600181019050612e35565b5050565b601f821115612e9857612e6981612d38565b612e7284612d4d565b81016020851015612e81578190505b612e95612e8d85612d4d565b830182612e34565b50505b505050565b600082821c905092915050565b6000612ebb60001984600802612e9d565b1980831691505092915050565b6000612ed48383612eaa565b9150826002028217905092915050565b612eed82612817565b67ffffffffffffffff811115612f0657612f056123fb565b5b612f108254612d07565b612f1b828285612e57565b600060209050601f831160018114612f4e5760008415612f3c578287015190505b612f468582612ec8565b865550612fae565b601f198416612f5c86612d38565b60005b82811015612f8457848901518255600182019150602085019450602081019050612f5f565b86831015612fa15784890151612f9d601f891682612eaa565b8355505b6001600288020188555050505b505050505050565b600060a082019050612fcb60008301886123b6565b612fd860208301876127ed565b8181036040830152612fea8186612c6f565b9050612ff9606083018561235a565b818103608083015261300b8184612c6f565b90509695505050505050565b7f5a65726f20616464726573730000000000000000000000000000000000000000600082015250565b600061304d600c836129c1565b915061305882613017565b602082019050919050565b6000602082019050818103600083015261307c81613040565b9050919050565b7f4e487b7100000000000000000000000000000000000000000000000000000000600052603260045260246000fd5b7f416c726561647920616464656400000000000000000000000000000000000000600082015250565b60006130e8600d836129c1565b91506130f3826130b2565b602082019050919050565b60006020820190508181036000830152613117816130db565b9050919050565b600060408201905061313360008301856127ed565b613140602083018461235a565b9392505050565b7f5265736f7572636520646f6573206e6f74206578697374730000000000000000600082015250565b600061317d6018836129c1565b915061318882613147565b602082019050919050565b600060208201905081810360008301526131ac81613170565b9050919050565b600060408201905081810360008301526131cd8185612c6f565b905081810360208301526131e18184612c6f565b90509392505050565b60006131f582612243565b915061320083612243565b925082820390508181111561321857613217612aaa565b5b92915050565b7f4e487b7100000000000000000000000000000000000000000000000000000000600052603160045260246000fd5b7f596f7520616c726561647920686f6c642074686973206b657900000000000000600082015250565b60006132836019836129c1565b915061328e8261324d565b602082019050919050565b600060208201905081810360008301526132b281613276565b9050919050565b60006040820190506132ce60008301856123b6565b6132db602083018461235a565b9392505050565b7f596f7520646f206e6f7420686176652061636365737300000000000000000000600082015250565b60006133186016836129c1565b9150613323826132e2565b602082019050919050565b600060208201905081810360008301526133478161330b565b9050919050565b600061335982612243565b91507fffffffffffffffffffffffffffffffffffffffffffffffffffffffffffffffff820361338b5761338a612aaa565b5b600182019050919050565b60006060820190506133ab60008301866123b6565b6133b8602083018561235a565b81810360408301526133ca8184612c6f565b9050949350505050565b600082825260208201905092915050565b50565b60006133f56000836133d4565b9150613400826133e5565b600082019050919050565b600060808201905061342060008301866123b6565b61342d60208301856123b6565b61343a604083018461235a565b818103606083015261344b816133e8565b9050949350505050565b60008151905061346481612666565b92915050565b6000602082840312156134805761347f6121aa565b5b600061348e84828501613455565b91505092915050565b7f556e7361666520726563697069656e7400000000000000000000000000000000600082015250565b60006134cd6010836129c1565b91506134d882613497565b602082019050919050565b600060208201905081810360008301526134fc816134c0565b9050919050565b7f5a65726f20416464726573730000000000000000000000000000000000000000600082015250565b6000613539600c836129c1565b915061354482613503565b602082019050919050565b600060208201905081810360008301526135688161352c565b9050919050565b7f416c726561647920457869737473000000000000000000000000000000000000600082015250565b60006135a5600e836129c1565b91506135b08261356f565b602082019050919050565b600060208201905081810360008301526135d481613598565b9050919050565b7f46726f6d20213d206f776e657200000000000000000000000000000000000000600082015250565b6000613611600d836129c1565b915061361c826135db565b602082019050919050565b6000602082019050818103600083015261364081613604565b905091905056fea26469706673582212205ca785bf6b9dac80c1b289b938fdb5fd321a16bf54d7bd19bea79b2c6c10b6cb64736f6c634300081c0033",
  "linkReferences": {},
  "deployedLinkReferences": {}
}