{
  "_format": "hh-sol-artifact-1",
  "contractName": "Derive",
  "sourceName": "contracts/Derive.sol",
  "abi": [
    {
      "anonymous": false,
      "inputs": [
        {
          "indexed": false,
          "internalType": "bytes32",
          "name": "resourceId",
          "type": "bytes32"
        },
        {
          "indexed": false,
          "internalType": "uint256",
          "name": "tokenId",
          "type": "uint256"
        }
      ],
      "name": "AccessAdded",
      "type": "event"
    },
    {
      "anonymous": false,
      "inputs": [
        {
          "indexed": false,
          "internalType": "address",
          "name": "owner",
          "type": "address"
        },
        {
          "indexed": false,
          "internalType": "uint256",
          "name": "tokenId",
          "type": "uint256"
        },
        {
          "indexed": false,
          "internalType": "string",
          "name": "name",
          "type": "string"
        }
      ],
      "name": "Creation",
      "type": "event"
    },
    {
      "anonymous": false,
      "inputs": [
        {
          "indexed": false,
          "internalType": "address",
          "name": "prevOwner",
          "type": "address"
        },
        {
          "indexed": false,
          "internalType": "uint256",
          "name": "tokenId",
          "type": "uint256"
        }
      ],
      "name": "KeyReclaimed",
      "type": "event"
    },
    {
      "anonymous": false,
      "inputs": [
        {
          "indexed": false,
          "internalType": "bytes32",
          "name": "resourceId",
          "type": "bytes32"
        },
        {
          "indexed": false,
          "internalType": "uint256",
          "name": "tokenId",
          "type": "uint256"
        }
      ],
      "name": "RemovedFromList",
      "type": "event"
    },
    {
      "anonymous": false,
      "inputs": [
        {
          "indexed": false,
          "internalType": "address",
          "name": "owner",
          "type": "address"
        },
        {
          "indexed": false,
          "internalType": "bytes32",
          "name": "resourceId",
          "type": "bytes32"
        },
        {
          "indexed": false,
          "internalType": "string",
          "name": "name",
          "type": "string"
        },
        {
          "indexed": false,
          "internalType": "uint256",
          "name": "tokenId",
          "type": "uint256"
        }
      ],
      "name": "ResourceAdded",
      "type": "event"
    },
    {
      "anonymous": false,
      "inputs": [
        {
          "indexed": false,
          "internalType": "address",
          "name": "owner",
          "type": "address"
        },
        {
          "indexed": false,
          "internalType": "bytes32",
          "name": "resourceId",
          "type": "bytes32"
        }
      ],
      "name": "ResourceRemoved",
      "type": "event"
    },
    {
      "anonymous": false,
      "inputs": [
        {
          "indexed": true,
          "internalType": "address",
          "name": "from",
          "type": "address"
        },
        {
          "indexed": true,
          "internalType": "address",
          "name": "to",
          "type": "address"
        },
        {
          "indexed": true,
          "internalType": "uint256",
          "name": "id",
          "type": "uint256"
        }
      ],
      "name": "Transfer",
      "type": "event"
    },
    {
      "inputs": [
        {
          "internalType": "bytes32",
          "name": "resourceId",
          "type": "bytes32"
        },
        {
          "internalType": "uint256",
          "name": "tokenId",
          "type": "uint256"
        }
      ],
      "name": "addAccess",
      "outputs": [],
      "stateMutability": "nonpayable",
      "type": "function"
    },
    {
      "inputs": [
        {
          "internalType": "string",
          "name": "_name",
          "type": "string"
        },
        {
          "internalType": "string",
          "name": "_cid",
          "type": "string"
        },
        {
          "internalType": "uint256",
          "name": "tokenId",
          "type": "uint256"
        }
      ],
      "name": "addResource",
      "outputs": [],
      "stateMutability": "nonpayable",
      "type": "function"
    },
    {
      "inputs": [
        {
          "internalType": "address",
          "name": "owner",
          "type": "address"
        }
      ],
      "name": "balanceOf",
      "outputs": [
        {
          "internalType": "uint256",
          "name": "balance",
          "type": "uint256"
        }
      ],
      "stateMutability": "view",
      "type": "function"
    },
    {
      "inputs": [
        {
          "internalType": "uint256",
          "name": "tokenId",
          "type": "uint256"
        }
      ],
      "name": "burnKey",
      "outputs": [],
      "stateMutability": "nonpayable",
      "type": "function"
    },
    {
      "inputs": [],
      "name": "counter",
      "outputs": [
        {
          "internalType": "uint256",
          "name": "",
          "type": "uint256"
        }
      ],
      "stateMutability": "view",
      "type": "function"
    },
    {
      "inputs": [
        {
          "internalType": "string",
          "name": "_name",
          "type": "string"
        }
      ],
      "name": "createNFT",
      "outputs": [],
      "stateMutability": "nonpayable",
      "type": "function"
    },
    {
      "inputs": [
        {
          "internalType": "string",
          "name": "name",
          "type": "string"
        },
        {
          "internalType": "string",
          "name": "cid",
          "type": "string"
        }
      ],
      "name": "getId",
      "outputs": [
        {
          "internalType": "bytes32",
          "name": "resourceId",
          "type": "bytes32"
        }
      ],
      "stateMutability": "pure",
      "type": "function"
    },
    {
      "inputs": [
        {
          "internalType": "address",
          "name": "caller",
          "type": "address"
        },
        {
          "internalType": "bytes32",
          "name": "resourceId",
          "type": "bytes32"
        }
      ],
      "name": "getResource",
      "outputs": [
        {
          "components": [
            {
              "internalType": "string",
              "name": "name",
              "type": "string"
            },
            {
              "internalType": "string",
              "name": "cid",
              "type": "string"
            },
            {
              "internalType": "address",
              "name": "owner",
              "type": "address"
            }
          ],
          "internalType": "struct Derive.Resource",
          "name": "",
          "type": "tuple"
        }
      ],
      "stateMutability": "view",
      "type": "function"
    },
    {
      "inputs": [
        {
          "internalType": "address",
          "name": "user",
          "type": "address"
        },
        {
          "internalType": "bytes32",
          "name": "resourceId",
          "type": "bytes32"
        }
      ],
      "name": "hasAccess",
      "outputs": [
        {
          "internalType": "bool",
          "name": "",
          "type": "bool"
        }
      ],
      "stateMutability": "view",
      "type": "function"
    },
    {
      "inputs": [
        {
          "internalType": "uint256",
          "name": "tokenId",
          "type": "uint256"
        }
      ],
      "name": "ownerOf",
      "outputs": [
        {
          "internalType": "address",
          "name": "owner",
          "type": "address"
        }
      ],
      "stateMutability": "view",
      "type": "function"
    },
    {
      "inputs": [
        {
          "internalType": "uint256",
          "name": "tokenId",
          "type": "uint256"
        }
      ],
      "name": "reclaimKey",
      "outputs": [],
      "stateMutability": "nonpayable",
      "type": "function"
    },
    {
      "inputs": [
        {
          "internalType": "bytes32",
          "name": "resourceId",
          "type": "bytes32"
        },
        {
          "internalType": "uint256",
          "name": "tokenId",
          "type": "uint256"
        }
      ],
      "name": "removeNFTFromList",
      "outputs": [],
      "stateMutability": "nonpayable",
      "type": "function"
    },
    {
      "inputs": [
        {
          "internalType": "bytes32",
          "name": "resourceId",
          "type": "bytes32"
        }
      ],
      "name": "removeResource",
      "outputs": [],
      "stateMutability": "nonpayable",
      "type": "function"
    },
    {
      "inputs": [
        {
          "internalType": "address",
          "name": "receiver",
          "type": "address"
        },
        {
          "internalType": "uint256",
          "name": "tokenId",
          "type": "uint256"
        }
      ],
      "name": "share",
      "outputs": [],
      "stateMutability": "nonpayable",
      "type": "function"
    },
    {
      "inputs": [
        {
          "internalType": "bytes32",
          "name": "resourceId",
          "type": "bytes32"
        }
      ],
      "name": "showAccess",
      "outputs": [
        {
          "internalType": "uint256[]",
          "name": "",
          "type": "uint256[]"
        }
      ],
      "stateMutability": "view",
      "type": "function"
    },
    {
      "inputs": [
        {
          "internalType": "bytes4",
          "name": "interfaceId",
          "type": "bytes4"
        }
      ],
      "name": "supportInterface",
      "outputs": [
        {
          "internalType": "bool",
          "name": "",
          "type": "bool"
        }
      ],
      "stateMutability": "pure",
      "type": "function"
    }
  ],
  "bytecode": "0x6080604052348015600f57600080fd5b506137c68061001f6000396000f3fe608060405234801561001057600080fd5b50600436106101005760003560e01c80637e0261c811610097578063ab21fd0c11610066578063ab21fd0c146102e3578063da2ed03e146102ff578063ded6338b1461031b578063e7c71a9f1461033757610100565b80637e0261c81461024b5780638158e13a1461027b57806390901aa31461029757806390ee051b146102b357610100565b806370a08231116100d357806370a082311461019f57806375e79be6146101cf5780637bedf390146101ff5780637d294e621461021b57610100565b80630cc2d781146101055780635d75cd901461013557806361bc221a146101515780636352211e1461016f575b600080fd5b61011f600480360381019061011a9190612294565b610353565b60405161012c9190612389565b60405180910390f35b61014f600480360381019061014a9190612294565b610464565b005b610159610648565b60405161016691906123ba565b60405180910390f35b61018960048036038101906101849190612401565b61064e565b604051610196919061246f565b60405180910390f35b6101b960048036038101906101b491906124b6565b6106f9565b6040516101c691906123ba565b60405180910390f35b6101e960048036038101906101e4919061253b565b6107b0565b6040516101f69190612583565b60405180910390f35b6102196004803603810190610214919061259e565b610882565b005b610235600480360381019061023091906125de565b610ae5565b6040516102429190612583565b60405180910390f35b61026560048036038101906102609190612764565b610ea0565b60405161027291906127eb565b60405180910390f35b6102956004803603810190610290919061259e565b610ed3565b005b6102b160048036038101906102ac9190612401565b611183565b005b6102cd60048036038101906102c891906125de565b6112b1565b6040516102da91906128eb565b60405180910390f35b6102fd60048036038101906102f89190612401565b6114a8565b005b6103196004803603810190610314919061290d565b61163b565b005b61033560048036038101906103309190612956565b6117b0565b005b610351600480360381019061034c9190612996565b6117bf565b005b6060813373ffffffffffffffffffffffffffffffffffffffff166004600083815260200190815260200160002060020160009054906101000a900473ffffffffffffffffffffffffffffffffffffffff1673ffffffffffffffffffffffffffffffffffffffff16146103fa576040517f08c379a00000000000000000000000000000000000000000000000000000000081526004016103f190612a7e565b60405180910390fd5b6005600084815260200190815260200160002080548060200260200160405190810160405280929190818152602001828054801561045757602002820191906000526020600020905b815481526020019060010190808311610443575b5050505050915050919050565b803373ffffffffffffffffffffffffffffffffffffffff166004600083815260200190815260200160002060020160009054906101000a900473ffffffffffffffffffffffffffffffffffffffff1673ffffffffffffffffffffffffffffffffffffffff1614610509576040517f08c379a000000000000000000000000000000000000000000000000000000000815260040161050090612a7e565b60405180910390fd5b600073ffffffffffffffffffffffffffffffffffffffff166004600084815260200190815260200160002060020160009054906101000a900473ffffffffffffffffffffffffffffffffffffffff1673ffffffffffffffffffffffffffffffffffffffff16036105ae576040517f08c379a00000000000000000000000000000000000000000000000000000000081526004016105a590612aea565b60405180910390fd5b60046000838152602001908152602001600020600080820160006105d291906121b6565b6001820160006105e291906121b6565b6002820160006101000a81549073ffffffffffffffffffffffffffffffffffffffff021916905550507f585465d02be52545e8e649e9e0e4c4d0462a976505db8178677bb178a15acfc9338360405161063c929190612b0a565b60405180910390a15050565b60025481565b600080600083815260200190815260200160002060009054906101000a900473ffffffffffffffffffffffffffffffffffffffff169050600073ffffffffffffffffffffffffffffffffffffffff168173ffffffffffffffffffffffffffffffffffffffff16036106f4576040517f08c379a00000000000000000000000000000000000000000000000000000000081526004016106eb90612b7f565b60405180910390fd5b919050565b60008073ffffffffffffffffffffffffffffffffffffffff168273ffffffffffffffffffffffffffffffffffffffff1603610769576040517f08c379a000000000000000000000000000000000000000000000000000000000815260040161076090612beb565b60405180910390fd5b600160008373ffffffffffffffffffffffffffffffffffffffff1673ffffffffffffffffffffffffffffffffffffffff168152602001908152602001600020549050919050565b60007f13f2a32f000000000000000000000000000000000000000000000000000000007bffffffffffffffffffffffffffffffffffffffffffffffffffffffff1916827bffffffffffffffffffffffffffffffffffffffffffffffffffffffff1916148061087b57507f75e79be6000000000000000000000000000000000000000000000000000000007bffffffffffffffffffffffffffffffffffffffffffffffffffffffff1916827bffffffffffffffffffffffffffffffffffffffffffffffffffffffff1916145b9050919050565b803373ffffffffffffffffffffffffffffffffffffffff166003600083815260200190815260200160002060020160009054906101000a900473ffffffffffffffffffffffffffffffffffffffff1673ffffffffffffffffffffffffffffffffffffffff1614610927576040517f08c379a000000000000000000000000000000000000000000000000000000000815260040161091e90612c57565b60405180910390fd5b823373ffffffffffffffffffffffffffffffffffffffff166004600083815260200190815260200160002060020160009054906101000a900473ffffffffffffffffffffffffffffffffffffffff1673ffffffffffffffffffffffffffffffffffffffff16146109cc576040517f08c379a00000000000000000000000000000000000000000000000000000000081526004016109c390612a7e565b60405180910390fd5b60005b6005600086815260200190815260200160002080549050811015610a6b5783600560008781526020019081526020016000208281548110610a1357610a12612c77565b5b906000526020600020015403610a5e576040517f08c379a0000000000000000000000000000000000000000000000000000000008152600401610a5590612cf2565b60405180910390fd5b80806001019150506109cf565b50600560008581526020019081526020016000208390806001815401808255809150506001900390600052602060002001600090919091909150557f178e005ff95341d5f0934260c8c523d87a26152c34817d9cf4546305d9da430f8484604051610ad7929190612d12565b60405180910390a150505050565b60008160018015610b9a57600073ffffffffffffffffffffffffffffffffffffffff166004600084815260200190815260200160002060020160009054906101000a900473ffffffffffffffffffffffffffffffffffffffff1673ffffffffffffffffffffffffffffffffffffffff1603610b95576040517f08c379a0000000000000000000000000000000000000000000000000000000008152600401610b8c90612d87565b60405180910390fd5b610c40565b600073ffffffffffffffffffffffffffffffffffffffff166004600084815260200190815260200160002060020160009054906101000a900473ffffffffffffffffffffffffffffffffffffffff1673ffffffffffffffffffffffffffffffffffffffff1614610c3f576040517f08c379a0000000000000000000000000000000000000000000000000000000008152600401610c3690612df3565b60405180910390fd5b5b600073ffffffffffffffffffffffffffffffffffffffff166004600086815260200190815260200160002060020160009054906101000a900473ffffffffffffffffffffffffffffffffffffffff1673ffffffffffffffffffffffffffffffffffffffff1603610ce5576040517f08c379a0000000000000000000000000000000000000000000000000000000008152600401610cdc90612d87565b60405180910390fd5b600073ffffffffffffffffffffffffffffffffffffffff168573ffffffffffffffffffffffffffffffffffffffff1603610d54576040517f08c379a0000000000000000000000000000000000000000000000000000000008152600401610d4b90612beb565b60405180910390fd5b8473ffffffffffffffffffffffffffffffffffffffff166004600086815260200190815260200160002060020160009054906101000a900473ffffffffffffffffffffffffffffffffffffffff1673ffffffffffffffffffffffffffffffffffffffff1603610dc65760019250610e98565b60005b6005600086815260200190815260200160002080549050811015610e92578573ffffffffffffffffffffffffffffffffffffffff16600080600560008981526020019081526020016000208481548110610e2657610e25612c77565b5b9060005260206000200154815260200190815260200160002060009054906101000a900473ffffffffffffffffffffffffffffffffffffffff1673ffffffffffffffffffffffffffffffffffffffff1603610e85576001935050610e98565b8080600101915050610dc9565b50600092505b505092915050565b60008282604051602001610eb5929190612e4c565b60405160208183030381529060405280519060200120905092915050565b813373ffffffffffffffffffffffffffffffffffffffff166004600083815260200190815260200160002060020160009054906101000a900473ffffffffffffffffffffffffffffffffffffffff1673ffffffffffffffffffffffffffffffffffffffff1614610f78576040517f08c379a0000000000000000000000000000000000000000000000000000000008152600401610f6f90612a7e565b60405180910390fd5b3373ffffffffffffffffffffffffffffffffffffffff1660008084815260200190815260200160002060009054906101000a900473ffffffffffffffffffffffffffffffffffffffff1673ffffffffffffffffffffffffffffffffffffffff1614610fe757610fe6826114a8565b5b60006005600085815260200190815260200160002080549050905060018103611045576040517f08c379a000000000000000000000000000000000000000000000000000000000815260040161103c90612ef5565b60405180910390fd5b60005b8181101561117b578360056000878152602001908152602001600020828154811061107657611075612c77565b5b90600052602060002001540361116e57600560008681526020019081526020016000206001836110a69190612f44565b815481106110b7576110b6612c77565b5b90600052602060002001546005600087815260200190815260200160002082815481106110e7576110e6612c77565b5b90600052602060002001819055506005600086815260200190815260200160002080548061111857611117612f78565b5b600190038181906000526020600020016000905590557f1fe28afa538dc6a46f548a24f5452bb9b55587602a225d4a1fbc8701e27e11c7858560405161115f929190612d12565b60405180910390a1505061117e565b8080600101915050611048565b50505b505050565b803373ffffffffffffffffffffffffffffffffffffffff166003600083815260200190815260200160002060020160009054906101000a900473ffffffffffffffffffffffffffffffffffffffff1673ffffffffffffffffffffffffffffffffffffffff1614611228576040517f08c379a000000000000000000000000000000000000000000000000000000000815260040161121f90612c57565b60405180910390fd5b61123182611a6e565b6003600083815260200190815260200160002060008082016000905560018201600061125d91906121b6565b6002820160006101000a81549073ffffffffffffffffffffffffffffffffffffffff02191690556003820160006101000a81549073ffffffffffffffffffffffffffffffffffffffff021916905550505050565b6112b96121f6565b6112c38383610ae5565b1561146757600460008381526020019081526020016000206040518060600160405290816000820180546112f690612fd6565b80601f016020809104026020016040519081016040528092919081815260200182805461132290612fd6565b801561136f5780601f106113445761010080835404028352916020019161136f565b820191906000526020600020905b81548152906001019060200180831161135257829003601f168201915b5050505050815260200160018201805461138890612fd6565b80601f01602080910402602001604051908101604052809291908181526020018280546113b490612fd6565b80156114015780601f106113d657610100808354040283529160200191611401565b820191906000526020600020905b8154815290600101906020018083116113e457829003601f168201915b505050505081526020016002820160009054906101000a900473ffffffffffffffffffffffffffffffffffffffff1673ffffffffffffffffffffffffffffffffffffffff1673ffffffffffffffffffffffffffffffffffffffff168152505090506114a2565b6040517f08c379a000000000000000000000000000000000000000000000000000000000815260040161149990613053565b60405180910390fd5b92915050565b803373ffffffffffffffffffffffffffffffffffffffff166003600083815260200190815260200160002060020160009054906101000a900473ffffffffffffffffffffffffffffffffffffffff1673ffffffffffffffffffffffffffffffffffffffff161461154d576040517f08c379a000000000000000000000000000000000000000000000000000000000815260040161154490612c57565b60405180910390fd5b600080600084815260200190815260200160002060009054906101000a900473ffffffffffffffffffffffffffffffffffffffff1690503373ffffffffffffffffffffffffffffffffffffffff168173ffffffffffffffffffffffffffffffffffffffff16036115f2576040517f08c379a00000000000000000000000000000000000000000000000000000000081526004016115e9906130bf565b60405180910390fd5b6115fd813385611bfe565b7ff41ab3b4a359db16e2e65ab9559b37894ad1d115fcc09c02a96fe1dbf1620b17818460405161162e9291906130df565b60405180910390a1505050565b60006002600081548092919061165090613108565b9190505590506116603382611d36565b60405180608001604052808281526020018381526020013373ffffffffffffffffffffffffffffffffffffffff1681526020013373ffffffffffffffffffffffffffffffffffffffff16815250600360008381526020019081526020016000206000820151816000015560208201518160010190816116df91906132fc565b5060408201518160020160006101000a81548173ffffffffffffffffffffffffffffffffffffffff021916908373ffffffffffffffffffffffffffffffffffffffff16021790555060608201518160030160006101000a81548173ffffffffffffffffffffffffffffffffffffffff021916908373ffffffffffffffffffffffffffffffffffffffff1602179055509050507fe649b25ea418284e682d98726ce07ccc7a6a926d3cdac495942354deca6627433382846040516117a4939291906133ce565b60405180910390a15050565b6117bb338383611bfe565b5050565b803373ffffffffffffffffffffffffffffffffffffffff166003600083815260200190815260200160002060020160009054906101000a900473ffffffffffffffffffffffffffffffffffffffff1673ffffffffffffffffffffffffffffffffffffffff1614611864576040517f08c379a000000000000000000000000000000000000000000000000000000000815260040161185b90612c57565b60405180910390fd5b6000843360405160200161187992919061340c565b604051602081830303815290604052805190602001209050600073ffffffffffffffffffffffffffffffffffffffff166004600083815260200190815260200160002060020160009054906101000a900473ffffffffffffffffffffffffffffffffffffffff1673ffffffffffffffffffffffffffffffffffffffff1614611936576040517f08c379a000000000000000000000000000000000000000000000000000000000815260040161192d90612df3565b60405180910390fd5b60405180606001604052808681526020018581526020013373ffffffffffffffffffffffffffffffffffffffff1681525060046000838152602001908152602001600020600082015181600001908161198f91906132fc565b5060208201518160010190816119a591906132fc565b5060408201518160020160006101000a81548173ffffffffffffffffffffffffffffffffffffffff021916908373ffffffffffffffffffffffffffffffffffffffff160217905550905050600560008281526020019081526020016000208390806001815401808255809150506001900390600052602060002001600090919091909150557fcfd2f1ce6a9f01c980bd809e3e57288c2527d9448f9f699ca9d6c97f7ad0290433828786604051611a5f949392919061343c565b60405180910390a15050505050565b600080600083815260200190815260200160002060009054906101000a900473ffffffffffffffffffffffffffffffffffffffff169050600073ffffffffffffffffffffffffffffffffffffffff168173ffffffffffffffffffffffffffffffffffffffff1603611b14576040517f08c379a0000000000000000000000000000000000000000000000000000000008152600401611b0b906134d4565b60405180910390fd5b600160008273ffffffffffffffffffffffffffffffffffffffff1673ffffffffffffffffffffffffffffffffffffffff1681526020019081526020016000206000815480929190611b64906134f4565b919050555060008083815260200190815260200160002060006101000a81549073ffffffffffffffffffffffffffffffffffffffff021916905581600073ffffffffffffffffffffffffffffffffffffffff168273ffffffffffffffffffffffffffffffffffffffff167fddf252ad1be2c89b69c2b068fc378daa952ba7f163c4a11628f55a4df523b3ef60405160405180910390a45050565b611c09838383611f4c565b60008273ffffffffffffffffffffffffffffffffffffffff163b1480611cf2575063150b7a0260e01b7bffffffffffffffffffffffffffffffffffffffffffffffffffffffff19168273ffffffffffffffffffffffffffffffffffffffff1663150b7a023386856040518463ffffffff1660e01b8152600401611c8e93929190613554565b6020604051808303816000875af1158015611cad573d6000803e3d6000fd5b505050506040513d601f19601f82011682018060405250810190611cd191906135b3565b7bffffffffffffffffffffffffffffffffffffffffffffffffffffffff1916145b611d31576040517f08c379a0000000000000000000000000000000000000000000000000000000008152600401611d289061362c565b60405180910390fd5b505050565b600073ffffffffffffffffffffffffffffffffffffffff168273ffffffffffffffffffffffffffffffffffffffff1603611da5576040517f08c379a0000000000000000000000000000000000000000000000000000000008152600401611d9c90613698565b60405180910390fd5b600073ffffffffffffffffffffffffffffffffffffffff1660008083815260200190815260200160002060009054906101000a900473ffffffffffffffffffffffffffffffffffffffff1673ffffffffffffffffffffffffffffffffffffffff1614611e46576040517f08c379a0000000000000000000000000000000000000000000000000000000008152600401611e3d90613704565b60405180910390fd5b600160008373ffffffffffffffffffffffffffffffffffffffff1673ffffffffffffffffffffffffffffffffffffffff1681526020019081526020016000206000815480929190611e9690613108565b91905055508160008083815260200190815260200160002060006101000a81548173ffffffffffffffffffffffffffffffffffffffff021916908373ffffffffffffffffffffffffffffffffffffffff160217905550808273ffffffffffffffffffffffffffffffffffffffff16600073ffffffffffffffffffffffffffffffffffffffff167fddf252ad1be2c89b69c2b068fc378daa952ba7f163c4a11628f55a4df523b3ef60405160405180910390a45050565b60008082815260200190815260200160002060009054906101000a900473ffffffffffffffffffffffffffffffffffffffff1673ffffffffffffffffffffffffffffffffffffffff168373ffffffffffffffffffffffffffffffffffffffff1614611fec576040517f08c379a0000000000000000000000000000000000000000000000000000000008152600401611fe390613770565b60405180910390fd5b600073ffffffffffffffffffffffffffffffffffffffff168273ffffffffffffffffffffffffffffffffffffffff160361205b576040517f08c379a000000000000000000000000000000000000000000000000000000000815260040161205290613698565b60405180910390fd5b600160008473ffffffffffffffffffffffffffffffffffffffff1673ffffffffffffffffffffffffffffffffffffffff16815260200190815260200160002060008154809291906120ab906134f4565b9190505550600160008373ffffffffffffffffffffffffffffffffffffffff1673ffffffffffffffffffffffffffffffffffffffff168152602001908152602001600020600081548092919061210090613108565b91905055508160008083815260200190815260200160002060006101000a81548173ffffffffffffffffffffffffffffffffffffffff021916908373ffffffffffffffffffffffffffffffffffffffff160217905550808273ffffffffffffffffffffffffffffffffffffffff168473ffffffffffffffffffffffffffffffffffffffff167fddf252ad1be2c89b69c2b068fc378daa952ba7f163c4a11628f55a4df523b3ef60405160405180910390a4505050565b5080546121c290612fd6565b6000825580601f106121d457506121f3565b601f0160209004906000526020600020908101906121f2919061222d565b5b50565b60405180606001604052806060815260200160608152602001600073ffffffffffffffffffffffffffffffffffffffff1681525090565b5b8082111561224657600081600090555060010161222e565b5090565b6000604051905090565b600080fd5b600080fd5b6000819050919050565b6122718161225e565b811461227c57600080fd5b50565b60008135905061228e81612268565b92915050565b6000602082840312156122aa576122a9612254565b5b60006122b88482850161227f565b91505092915050565b600081519050919050565b600082825260208201905092915050565b6000819050602082019050919050565b6000819050919050565b612300816122ed565b82525050565b600061231283836122f7565b60208301905092915050565b6000602082019050919050565b6000612336826122c1565b61234081856122cc565b935061234b836122dd565b8060005b8381101561237c5781516123638882612306565b975061236e8361231e565b92505060018101905061234f565b5085935050505092915050565b600060208201905081810360008301526123a3818461232b565b905092915050565b6123b4816122ed565b82525050565b60006020820190506123cf60008301846123ab565b92915050565b6123de816122ed565b81146123e957600080fd5b50565b6000813590506123fb816123d5565b92915050565b60006020828403121561241757612416612254565b5b6000612425848285016123ec565b91505092915050565b600073ffffffffffffffffffffffffffffffffffffffff82169050919050565b60006124598261242e565b9050919050565b6124698161244e565b82525050565b60006020820190506124846000830184612460565b92915050565b6124938161244e565b811461249e57600080fd5b50565b6000813590506124b08161248a565b92915050565b6000602082840312156124cc576124cb612254565b5b60006124da848285016124a1565b91505092915050565b60007fffffffff0000000000000000000000000000000000000000000000000000000082169050919050565b612518816124e3565b811461252357600080fd5b50565b6000813590506125358161250f565b92915050565b60006020828403121561255157612550612254565b5b600061255f84828501612526565b91505092915050565b60008115159050919050565b61257d81612568565b82525050565b60006020820190506125986000830184612574565b92915050565b600080604083850312156125b5576125b4612254565b5b60006125c38582860161227f565b92505060206125d4858286016123ec565b9150509250929050565b600080604083850312156125f5576125f4612254565b5b6000612603858286016124a1565b92505060206126148582860161227f565b9150509250929050565b600080fd5b600080fd5b6000601f19601f8301169050919050565b7f4e487b7100000000000000000000000000000000000000000000000000000000600052604160045260246000fd5b61267182612628565b810181811067ffffffffffffffff821117156126905761268f612639565b5b80604052505050565b60006126a361224a565b90506126af8282612668565b919050565b600067ffffffffffffffff8211156126cf576126ce612639565b5b6126d882612628565b9050602081019050919050565b82818337600083830152505050565b6000612707612702846126b4565b612699565b90508281526020810184848401111561272357612722612623565b5b61272e8482856126e5565b509392505050565b600082601f83011261274b5761274a61261e565b5b813561275b8482602086016126f4565b91505092915050565b6000806040838503121561277b5761277a612254565b5b600083013567ffffffffffffffff81111561279957612798612259565b5b6127a585828601612736565b925050602083013567ffffffffffffffff8111156127c6576127c5612259565b5b6127d285828601612736565b9150509250929050565b6127e58161225e565b82525050565b600060208201905061280060008301846127dc565b92915050565b600081519050919050565b600082825260208201905092915050565b60005b83811015612840578082015181840152602081019050612825565b60008484015250505050565b600061285782612806565b6128618185612811565b9350612871818560208601612822565b61287a81612628565b840191505092915050565b61288e8161244e565b82525050565b600060608301600083015184820360008601526128b1828261284c565b915050602083015184820360208601526128cb828261284c565b91505060408301516128e06040860182612885565b508091505092915050565b600060208201905081810360008301526129058184612894565b905092915050565b60006020828403121561292357612922612254565b5b600082013567ffffffffffffffff81111561294157612940612259565b5b61294d84828501612736565b91505092915050565b6000806040838503121561296d5761296c612254565b5b600061297b858286016124a1565b925050602061298c858286016123ec565b9150509250929050565b6000806000606084860312156129af576129ae612254565b5b600084013567ffffffffffffffff8111156129cd576129cc612259565b5b6129d986828701612736565b935050602084013567ffffffffffffffff8111156129fa576129f9612259565b5b612a0686828701612736565b9250506040612a17868287016123ec565b9150509250925092565b600082825260208201905092915050565b7f4e6f742061207265736f75726365206f776e6572000000000000000000000000600082015250565b6000612a68601483612a21565b9150612a7382612a32565b602082019050919050565b60006020820190508181036000830152612a9781612a5b565b9050919050565b7f5265736f7572636520646f6573206e6f74206578697374000000000000000000600082015250565b6000612ad4601783612a21565b9150612adf82612a9e565b602082019050919050565b60006020820190508181036000830152612b0381612ac7565b9050919050565b6000604082019050612b1f6000830185612460565b612b2c60208301846127dc565b9392505050565b7f4e6f742065786973740000000000000000000000000000000000000000000000600082015250565b6000612b69600983612a21565b9150612b7482612b33565b602082019050919050565b60006020820190508181036000830152612b9881612b5c565b9050919050565b7f5a65726f20616464726573730000000000000000000000000000000000000000600082015250565b6000612bd5600c83612a21565b9150612be082612b9f565b602082019050919050565b60006020820190508181036000830152612c0481612bc8565b9050919050565b7f4e4654206973206e6f74206f776e656420627920796f75000000000000000000600082015250565b6000612c41601783612a21565b9150612c4c82612c0b565b602082019050919050565b60006020820190508181036000830152612c7081612c34565b9050919050565b7f4e487b7100000000000000000000000000000000000000000000000000000000600052603260045260246000fd5b7f416c726561647920616464656400000000000000000000000000000000000000600082015250565b6000612cdc600d83612a21565b9150612ce782612ca6565b602082019050919050565b60006020820190508181036000830152612d0b81612ccf565b9050919050565b6000604082019050612d2760008301856127dc565b612d3460208301846123ab565b9392505050565b7f5265736f7572636520646f6573206e6f74206578697374730000000000000000600082015250565b6000612d71601883612a21565b9150612d7c82612d3b565b602082019050919050565b60006020820190508181036000830152612da081612d64565b9050919050565b7f5265736f7572636520616c726561647920657869737473000000000000000000600082015250565b6000612ddd601783612a21565b9150612de882612da7565b602082019050919050565b60006020820190508181036000830152612e0c81612dd0565b9050919050565b6000612e1e82612806565b612e288185612a21565b9350612e38818560208601612822565b612e4181612628565b840191505092915050565b60006040820190508181036000830152612e668185612e13565b90508181036020830152612e7a8184612e13565b90509392505050565b7f43616e6e6f742072656d6f7665206c61737420746f6b656e2066726f6d206c6960008201527f7374000000000000000000000000000000000000000000000000000000000000602082015250565b6000612edf602283612a21565b9150612eea82612e83565b604082019050919050565b60006020820190508181036000830152612f0e81612ed2565b9050919050565b7f4e487b7100000000000000000000000000000000000000000000000000000000600052601160045260246000fd5b6000612f4f826122ed565b9150612f5a836122ed565b9250828203905081811115612f7257612f71612f15565b5b92915050565b7f4e487b7100000000000000000000000000000000000000000000000000000000600052603160045260246000fd5b7f4e487b7100000000000000000000000000000000000000000000000000000000600052602260045260246000fd5b60006002820490506001821680612fee57607f821691505b60208210810361300157613000612fa7565b5b50919050565b7f596f7520646f206e6f7420686176652061636365737300000000000000000000600082015250565b600061303d601683612a21565b915061304882613007565b602082019050919050565b6000602082019050818103600083015261306c81613030565b9050919050565b7f596f7520616c726561647920686f6c642074686973206b657900000000000000600082015250565b60006130a9601983612a21565b91506130b482613073565b602082019050919050565b600060208201905081810360008301526130d88161309c565b9050919050565b60006040820190506130f46000830185612460565b61310160208301846123ab565b9392505050565b6000613113826122ed565b91507fffffffffffffffffffffffffffffffffffffffffffffffffffffffffffffffff820361314557613144612f15565b5b600182019050919050565b60008190508160005260206000209050919050565b60006020601f8301049050919050565b600082821b905092915050565b6000600883026131b27fffffffffffffffffffffffffffffffffffffffffffffffffffffffffffffffff82613175565b6131bc8683613175565b95508019841693508086168417925050509392505050565b6000819050919050565b60006131f96131f46131ef846122ed565b6131d4565b6122ed565b9050919050565b6000819050919050565b613213836131de565b61322761321f82613200565b848454613182565b825550505050565b600090565b61323c61322f565b61324781848461320a565b505050565b5b8181101561326b57613260600082613234565b60018101905061324d565b5050565b601f8211156132b05761328181613150565b61328a84613165565b81016020851015613299578190505b6132ad6132a585613165565b83018261324c565b50505b505050565b600082821c905092915050565b60006132d3600019846008026132b5565b1980831691505092915050565b60006132ec83836132c2565b9150826002028217905092915050565b61330582612806565b67ffffffffffffffff81111561331e5761331d612639565b5b6133288254612fd6565b61333382828561326f565b600060209050601f8311600181146133665760008415613354578287015190505b61335e85826132e0565b8655506133c6565b601f19841661337486613150565b60005b8281101561339c57848901518255600182019150602085019450602081019050613377565b868310156133b957848901516133b5601f8916826132c2565b8355505b6001600288020188555050505b505050505050565b60006060820190506133e36000830186612460565b6133f060208301856123ab565b81810360408301526134028184612e13565b9050949350505050565b600060408201905081810360008301526134268185612e13565b90506134356020830184612460565b9392505050565b60006080820190506134516000830187612460565b61345e60208301866127dc565b81810360408301526134708185612e13565b905061347f60608301846123ab565b95945050505050565b7f546f6b656e20646f6573206e6f74206578697374000000000000000000000000600082015250565b60006134be601483612a21565b91506134c982613488565b602082019050919050565b600060208201905081810360008301526134ed816134b1565b9050919050565b60006134ff826122ed565b91506000820361351257613511612f15565b5b600182039050919050565b600082825260208201905092915050565b50565b600061353e60008361351d565b91506135498261352e565b600082019050919050565b60006080820190506135696000830186612460565b6135766020830185612460565b61358360408301846123ab565b818103606083015261359481613531565b9050949350505050565b6000815190506135ad8161250f565b92915050565b6000602082840312156135c9576135c8612254565b5b60006135d78482850161359e565b91505092915050565b7f556e7361666520726563697069656e7400000000000000000000000000000000600082015250565b6000613616601083612a21565b9150613621826135e0565b602082019050919050565b6000602082019050818103600083015261364581613609565b9050919050565b7f5a65726f20416464726573730000000000000000000000000000000000000000600082015250565b6000613682600c83612a21565b915061368d8261364c565b602082019050919050565b600060208201905081810360008301526136b181613675565b9050919050565b7f416c726561647920457869737473000000000000000000000000000000000000600082015250565b60006136ee600e83612a21565b91506136f9826136b8565b602082019050919050565b6000602082019050818103600083015261371d816136e1565b9050919050565b7f46726f6d20213d206f776e657200000000000000000000000000000000000000600082015250565b600061375a600d83612a21565b915061376582613724565b602082019050919050565b600060208201905081810360008301526137898161374d565b905091905056fea2646970667358221220d65db6af8b507f93338728240f0af0af589f57d47f00d972d3b942f050f5c75f64736f6c634300081c0033",
  "linkReferences": {},
  "deployedLinkReferences": {}
}