{
  "_format": "hh-sol-artifact-1",
  "contractName": "Derive",
  "sourceName": "contracts/Derive.sol",
  "abi": [
    {
      "anonymous": false,
      "inputs": [
        {
          "indexed": false,
          "internalType": "bytes32",
          "name": "resourceId",
          "type": "bytes32"
        },
        {
          "indexed": false,
          "internalType": "uint256",
          "name": "tokenId",
          "type": "uint256"
        }
      ],
      "name": "AccessAdded",
      "type": "event"
    },
    {
      "anonymous": false,
      "inputs": [
        {
          "indexed": false,
          "internalType": "address",
          "name": "owner",
          "type": "address"
        },
        {
          "indexed": false,
          "internalType": "uint256",
          "name": "tokenId",
          "type": "uint256"
        },
        {
          "indexed": false,
          "internalType": "string",
          "name": "name",
          "type": "string"
        }
      ],
      "name": "Creation",
      "type": "event"
    },
    {
      "anonymous": false,
      "inputs": [
        {
          "indexed": false,
          "internalType": "address",
          "name": "prevOwner",
          "type": "address"
        },
        {
          "indexed": false,
          "internalType": "uint256",
          "name": "tokenId",
          "type": "uint256"
        }
      ],
      "name": "KeyReclaimed",
      "type": "event"
    },
    {
      "anonymous": false,
      "inputs": [
        {
          "indexed": false,
          "internalType": "bytes32",
          "name": "resourceId",
          "type": "bytes32"
        },
        {
          "indexed": false,
          "internalType": "uint256",
          "name": "tokenId",
          "type": "uint256"
        }
      ],
      "name": "RemovedFromList",
      "type": "event"
    },
    {
      "anonymous": false,
      "inputs": [
        {
          "indexed": false,
          "internalType": "address",
          "name": "owner",
          "type": "address"
        },
        {
          "indexed": false,
          "internalType": "bytes32",
          "name": "resourceId",
          "type": "bytes32"
        },
        {
          "indexed": false,
          "internalType": "string",
          "name": "name",
          "type": "string"
        },
        {
          "indexed": false,
          "internalType": "uint256",
          "name": "tokenId",
          "type": "uint256"
        }
      ],
      "name": "ResourceAdded",
      "type": "event"
    },
    {
      "anonymous": false,
      "inputs": [
        {
          "indexed": false,
          "internalType": "address",
          "name": "owner",
          "type": "address"
        },
        {
          "indexed": false,
          "internalType": "bytes32",
          "name": "resourceId",
          "type": "bytes32"
        }
      ],
      "name": "ResourceRemoved",
      "type": "event"
    },
    {
      "anonymous": false,
      "inputs": [
        {
          "indexed": true,
          "internalType": "address",
          "name": "from",
          "type": "address"
        },
        {
          "indexed": true,
          "internalType": "address",
          "name": "to",
          "type": "address"
        },
        {
          "indexed": true,
          "internalType": "uint256",
          "name": "id",
          "type": "uint256"
        }
      ],
      "name": "Transfer",
      "type": "event"
    },
    {
      "inputs": [
        {
          "internalType": "bytes32",
          "name": "resourceId",
          "type": "bytes32"
        },
        {
          "internalType": "uint256",
          "name": "tokenId",
          "type": "uint256"
        }
      ],
      "name": "addAccess",
      "outputs": [],
      "stateMutability": "nonpayable",
      "type": "function"
    },
    {
      "inputs": [
        {
          "internalType": "string",
          "name": "_name",
          "type": "string"
        },
        {
          "internalType": "string",
          "name": "_cid",
          "type": "string"
        },
        {
          "internalType": "uint256",
          "name": "tokenId",
          "type": "uint256"
        }
      ],
      "name": "addResource",
      "outputs": [],
      "stateMutability": "nonpayable",
      "type": "function"
    },
    {
      "inputs": [
        {
          "internalType": "address",
          "name": "owner",
          "type": "address"
        }
      ],
      "name": "balanceOf",
      "outputs": [
        {
          "internalType": "uint256",
          "name": "balance",
          "type": "uint256"
        }
      ],
      "stateMutability": "view",
      "type": "function"
    },
    {
      "inputs": [
        {
          "internalType": "uint256",
          "name": "tokenId",
          "type": "uint256"
        }
      ],
      "name": "burn",
      "outputs": [],
      "stateMutability": "nonpayable",
      "type": "function"
    },
    {
      "inputs": [],
      "name": "counter",
      "outputs": [
        {
          "internalType": "uint256",
          "name": "",
          "type": "uint256"
        }
      ],
      "stateMutability": "view",
      "type": "function"
    },
    {
      "inputs": [
        {
          "internalType": "string",
          "name": "_name",
          "type": "string"
        }
      ],
      "name": "createNFT",
      "outputs": [],
      "stateMutability": "nonpayable",
      "type": "function"
    },
    {
      "inputs": [
        {
          "internalType": "string",
          "name": "name",
          "type": "string"
        },
        {
          "internalType": "string",
          "name": "cid",
          "type": "string"
        }
      ],
      "name": "getId",
      "outputs": [
        {
          "internalType": "bytes32",
          "name": "resourceId",
          "type": "bytes32"
        }
      ],
      "stateMutability": "pure",
      "type": "function"
    },
    {
      "inputs": [
        {
          "internalType": "address",
          "name": "caller",
          "type": "address"
        },
        {
          "internalType": "bytes32",
          "name": "resourceId",
          "type": "bytes32"
        }
      ],
      "name": "getResource",
      "outputs": [
        {
          "components": [
            {
              "internalType": "string",
              "name": "name",
              "type": "string"
            },
            {
              "internalType": "string",
              "name": "cid",
              "type": "string"
            },
            {
              "internalType": "address",
              "name": "owner",
              "type": "address"
            }
          ],
          "internalType": "struct Derive.Resource",
          "name": "",
          "type": "tuple"
        }
      ],
      "stateMutability": "view",
      "type": "function"
    },
    {
      "inputs": [
        {
          "internalType": "address",
          "name": "user",
          "type": "address"
        },
        {
          "internalType": "bytes32",
          "name": "resourceId",
          "type": "bytes32"
        }
      ],
      "name": "hasAccess",
      "outputs": [
        {
          "internalType": "bool",
          "name": "",
          "type": "bool"
        }
      ],
      "stateMutability": "view",
      "type": "function"
    },
    {
      "inputs": [
        {
          "internalType": "uint256",
          "name": "tokenId",
          "type": "uint256"
        }
      ],
      "name": "ownerOf",
      "outputs": [
        {
          "internalType": "address",
          "name": "owner",
          "type": "address"
        }
      ],
      "stateMutability": "view",
      "type": "function"
    },
    {
      "inputs": [
        {
          "internalType": "uint256",
          "name": "tokenId",
          "type": "uint256"
        }
      ],
      "name": "reclaimKey",
      "outputs": [],
      "stateMutability": "nonpayable",
      "type": "function"
    },
    {
      "inputs": [
        {
          "internalType": "bytes32",
          "name": "resourceId",
          "type": "bytes32"
        },
        {
          "internalType": "uint256",
          "name": "tokenId",
          "type": "uint256"
        }
      ],
      "name": "removeNFTFromList",
      "outputs": [],
      "stateMutability": "nonpayable",
      "type": "function"
    },
    {
      "inputs": [
        {
          "internalType": "bytes32",
          "name": "resourceId",
          "type": "bytes32"
        }
      ],
      "name": "removeResource",
      "outputs": [],
      "stateMutability": "nonpayable",
      "type": "function"
    },
    {
      "inputs": [
        {
          "internalType": "address",
          "name": "receiver",
          "type": "address"
        },
        {
          "internalType": "uint256",
          "name": "tokenId",
          "type": "uint256"
        }
      ],
      "name": "share",
      "outputs": [],
      "stateMutability": "nonpayable",
      "type": "function"
    },
    {
      "inputs": [
        {
          "internalType": "bytes32",
          "name": "resourceId",
          "type": "bytes32"
        }
      ],
      "name": "showAccess",
      "outputs": [
        {
          "internalType": "uint256[]",
          "name": "",
          "type": "uint256[]"
        }
      ],
      "stateMutability": "view",
      "type": "function"
    },
    {
      "inputs": [
        {
          "internalType": "bytes4",
          "name": "interfaceId",
          "type": "bytes4"
        }
      ],
      "name": "supportInterface",
      "outputs": [
        {
          "internalType": "bool",
          "name": "",
          "type": "bool"
        }
      ],
      "stateMutability": "pure",
      "type": "function"
    }
  ],
  "bytecode": "0x6080604052348015600f57600080fd5b506135578061001f6000396000f3fe608060405234801561001057600080fd5b50600436106101005760003560e01c80637d294e6211610097578063ab21fd0c11610066578063ab21fd0c146102e3578063da2ed03e146102ff578063ded6338b1461031b578063e7c71a9f1461033757610100565b80637d294e62146102375780637e0261c8146102675780638158e13a1461029757806390ee051b146102b357610100565b80636352211e116100d35780636352211e1461018b57806370a08231146101bb57806375e79be6146101eb5780637bedf3901461021b57610100565b80630cc2d7811461010557806342966c68146101355780635d75cd901461015157806361bc221a1461016d575b600080fd5b61011f600480360381019061011a9190612123565b610353565b60405161012c9190612218565b60405180910390f35b61014f600480360381019061014a9190612266565b610464565b005b61016b60048036038101906101669190612123565b6105f4565b005b6101756107d8565b60405161018291906122a2565b60405180910390f35b6101a560048036038101906101a09190612266565b6107de565b6040516101b291906122fe565b60405180910390f35b6101d560048036038101906101d09190612345565b610889565b6040516101e291906122a2565b60405180910390f35b610205600480360381019061020091906123ca565b610940565b6040516102129190612412565b60405180910390f35b6102356004803603810190610230919061242d565b610a12565b005b610251600480360381019061024c919061246d565b610c75565b60405161025e9190612412565b60405180910390f35b610281600480360381019061027c91906125f3565b611030565b60405161028e919061267a565b60405180910390f35b6102b160048036038101906102ac919061242d565b611063565b005b6102cd60048036038101906102c8919061246d565b6112d0565b6040516102da919061277a565b60405180910390f35b6102fd60048036038101906102f89190612266565b6114c7565b005b6103196004803603810190610314919061279c565b61165a565b005b610335600480360381019061033091906127e5565b6117cf565b005b610351600480360381019061034c9190612825565b6117de565b005b6060813373ffffffffffffffffffffffffffffffffffffffff166004600083815260200190815260200160002060020160009054906101000a900473ffffffffffffffffffffffffffffffffffffffff1673ffffffffffffffffffffffffffffffffffffffff16146103fa576040517f08c379a00000000000000000000000000000000000000000000000000000000081526004016103f19061290d565b60405180910390fd5b6005600084815260200190815260200160002080548060200260200160405190810160405280929190818152602001828054801561045757602002820191906000526020600020905b815481526020019060010190808311610443575b5050505050915050919050565b600080600083815260200190815260200160002060009054906101000a900473ffffffffffffffffffffffffffffffffffffffff169050600073ffffffffffffffffffffffffffffffffffffffff168173ffffffffffffffffffffffffffffffffffffffff160361050a576040517f08c379a000000000000000000000000000000000000000000000000000000000815260040161050190612979565b60405180910390fd5b600160008273ffffffffffffffffffffffffffffffffffffffff1673ffffffffffffffffffffffffffffffffffffffff168152602001908152602001600020600081548092919061055a906129c8565b919050555060008083815260200190815260200160002060006101000a81549073ffffffffffffffffffffffffffffffffffffffff021916905581600073ffffffffffffffffffffffffffffffffffffffff168273ffffffffffffffffffffffffffffffffffffffff167fddf252ad1be2c89b69c2b068fc378daa952ba7f163c4a11628f55a4df523b3ef60405160405180910390a45050565b803373ffffffffffffffffffffffffffffffffffffffff166004600083815260200190815260200160002060020160009054906101000a900473ffffffffffffffffffffffffffffffffffffffff1673ffffffffffffffffffffffffffffffffffffffff1614610699576040517f08c379a00000000000000000000000000000000000000000000000000000000081526004016106909061290d565b60405180910390fd5b600073ffffffffffffffffffffffffffffffffffffffff166004600084815260200190815260200160002060020160009054906101000a900473ffffffffffffffffffffffffffffffffffffffff1673ffffffffffffffffffffffffffffffffffffffff161461073e576040517f08c379a000000000000000000000000000000000000000000000000000000000815260040161073590612a3d565b60405180910390fd5b60046000838152602001908152602001600020600080820160006107629190612045565b6001820160006107729190612045565b6002820160006101000a81549073ffffffffffffffffffffffffffffffffffffffff021916905550507f585465d02be52545e8e649e9e0e4c4d0462a976505db8178677bb178a15acfc933836040516107cc929190612a5d565b60405180910390a15050565b60025481565b600080600083815260200190815260200160002060009054906101000a900473ffffffffffffffffffffffffffffffffffffffff169050600073ffffffffffffffffffffffffffffffffffffffff168173ffffffffffffffffffffffffffffffffffffffff1603610884576040517f08c379a000000000000000000000000000000000000000000000000000000000815260040161087b90612ad2565b60405180910390fd5b919050565b60008073ffffffffffffffffffffffffffffffffffffffff168273ffffffffffffffffffffffffffffffffffffffff16036108f9576040517f08c379a00000000000000000000000000000000000000000000000000000000081526004016108f090612b3e565b60405180910390fd5b600160008373ffffffffffffffffffffffffffffffffffffffff1673ffffffffffffffffffffffffffffffffffffffff168152602001908152602001600020549050919050565b60007f13f2a32f000000000000000000000000000000000000000000000000000000007bffffffffffffffffffffffffffffffffffffffffffffffffffffffff1916827bffffffffffffffffffffffffffffffffffffffffffffffffffffffff19161480610a0b57507f75e79be6000000000000000000000000000000000000000000000000000000007bffffffffffffffffffffffffffffffffffffffffffffffffffffffff1916827bffffffffffffffffffffffffffffffffffffffffffffffffffffffff1916145b9050919050565b803373ffffffffffffffffffffffffffffffffffffffff166003600083815260200190815260200160002060020160009054906101000a900473ffffffffffffffffffffffffffffffffffffffff1673ffffffffffffffffffffffffffffffffffffffff1614610ab7576040517f08c379a0000000000000000000000000000000000000000000000000000000008152600401610aae90612baa565b60405180910390fd5b823373ffffffffffffffffffffffffffffffffffffffff166004600083815260200190815260200160002060020160009054906101000a900473ffffffffffffffffffffffffffffffffffffffff1673ffffffffffffffffffffffffffffffffffffffff1614610b5c576040517f08c379a0000000000000000000000000000000000000000000000000000000008152600401610b539061290d565b60405180910390fd5b60005b6005600086815260200190815260200160002080549050811015610bfb5783600560008781526020019081526020016000208281548110610ba357610ba2612bca565b5b906000526020600020015403610bee576040517f08c379a0000000000000000000000000000000000000000000000000000000008152600401610be590612c45565b60405180910390fd5b8080600101915050610b5f565b50600560008581526020019081526020016000208390806001815401808255809150506001900390600052602060002001600090919091909150557f178e005ff95341d5f0934260c8c523d87a26152c34817d9cf4546305d9da430f8484604051610c67929190612c65565b60405180910390a150505050565b60008160018015610d2a57600073ffffffffffffffffffffffffffffffffffffffff166004600084815260200190815260200160002060020160009054906101000a900473ffffffffffffffffffffffffffffffffffffffff1673ffffffffffffffffffffffffffffffffffffffff1603610d25576040517f08c379a0000000000000000000000000000000000000000000000000000000008152600401610d1c90612cda565b60405180910390fd5b610dd0565b600073ffffffffffffffffffffffffffffffffffffffff166004600084815260200190815260200160002060020160009054906101000a900473ffffffffffffffffffffffffffffffffffffffff1673ffffffffffffffffffffffffffffffffffffffff1614610dcf576040517f08c379a0000000000000000000000000000000000000000000000000000000008152600401610dc690612a3d565b60405180910390fd5b5b600073ffffffffffffffffffffffffffffffffffffffff166004600086815260200190815260200160002060020160009054906101000a900473ffffffffffffffffffffffffffffffffffffffff1673ffffffffffffffffffffffffffffffffffffffff1603610e75576040517f08c379a0000000000000000000000000000000000000000000000000000000008152600401610e6c90612cda565b60405180910390fd5b600073ffffffffffffffffffffffffffffffffffffffff168573ffffffffffffffffffffffffffffffffffffffff1603610ee4576040517f08c379a0000000000000000000000000000000000000000000000000000000008152600401610edb90612b3e565b60405180910390fd5b8473ffffffffffffffffffffffffffffffffffffffff166004600086815260200190815260200160002060020160009054906101000a900473ffffffffffffffffffffffffffffffffffffffff1673ffffffffffffffffffffffffffffffffffffffff1603610f565760019250611028565b60005b6005600086815260200190815260200160002080549050811015611022578573ffffffffffffffffffffffffffffffffffffffff16600080600560008981526020019081526020016000208481548110610fb657610fb5612bca565b5b9060005260206000200154815260200190815260200160002060009054906101000a900473ffffffffffffffffffffffffffffffffffffffff1673ffffffffffffffffffffffffffffffffffffffff1603611015576001935050611028565b8080600101915050610f59565b50600092505b505092915050565b60008282604051602001611045929190612d33565b60405160208183030381529060405280519060200120905092915050565b813373ffffffffffffffffffffffffffffffffffffffff166004600083815260200190815260200160002060020160009054906101000a900473ffffffffffffffffffffffffffffffffffffffff1673ffffffffffffffffffffffffffffffffffffffff1614611108576040517f08c379a00000000000000000000000000000000000000000000000000000000081526004016110ff9061290d565b60405180910390fd5b3373ffffffffffffffffffffffffffffffffffffffff1660008084815260200190815260200160002060009054906101000a900473ffffffffffffffffffffffffffffffffffffffff1673ffffffffffffffffffffffffffffffffffffffff161461117757611176826114c7565b5b60006005600085815260200190815260200160002080549050905060005b818110156112c857836005600087815260200190815260200160002082815481106111c3576111c2612bca565b5b9060005260206000200154036112bb57600560008681526020019081526020016000206001836111f39190612d6a565b8154811061120457611203612bca565b5b906000526020600020015460056000878152602001908152602001600020828154811061123457611233612bca565b5b90600052602060002001819055506005600086815260200190815260200160002080548061126557611264612d9e565b5b600190038181906000526020600020016000905590557f1fe28afa538dc6a46f548a24f5452bb9b55587602a225d4a1fbc8701e27e11c785856040516112ac929190612c65565b60405180910390a150506112cb565b8080600101915050611195565b50505b505050565b6112d8612085565b6112e28383610c75565b15611486576004600083815260200190815260200160002060405180606001604052908160008201805461131590612dfc565b80601f016020809104026020016040519081016040528092919081815260200182805461134190612dfc565b801561138e5780601f106113635761010080835404028352916020019161138e565b820191906000526020600020905b81548152906001019060200180831161137157829003601f168201915b505050505081526020016001820180546113a790612dfc565b80601f01602080910402602001604051908101604052809291908181526020018280546113d390612dfc565b80156114205780601f106113f557610100808354040283529160200191611420565b820191906000526020600020905b81548152906001019060200180831161140357829003601f168201915b505050505081526020016002820160009054906101000a900473ffffffffffffffffffffffffffffffffffffffff1673ffffffffffffffffffffffffffffffffffffffff1673ffffffffffffffffffffffffffffffffffffffff168152505090506114c1565b6040517f08c379a00000000000000000000000000000000000000000000000000000000081526004016114b890612e79565b60405180910390fd5b92915050565b803373ffffffffffffffffffffffffffffffffffffffff166003600083815260200190815260200160002060020160009054906101000a900473ffffffffffffffffffffffffffffffffffffffff1673ffffffffffffffffffffffffffffffffffffffff161461156c576040517f08c379a000000000000000000000000000000000000000000000000000000000815260040161156390612baa565b60405180910390fd5b600080600084815260200190815260200160002060009054906101000a900473ffffffffffffffffffffffffffffffffffffffff1690503373ffffffffffffffffffffffffffffffffffffffff168173ffffffffffffffffffffffffffffffffffffffff1603611611576040517f08c379a000000000000000000000000000000000000000000000000000000000815260040161160890612ee5565b60405180910390fd5b61161c813385611a8d565b7ff41ab3b4a359db16e2e65ab9559b37894ad1d115fcc09c02a96fe1dbf1620b17818460405161164d929190612f05565b60405180910390a1505050565b60006002600081548092919061166f90612f2e565b91905055905061167f3382611bc5565b60405180608001604052808281526020018381526020013373ffffffffffffffffffffffffffffffffffffffff1681526020013373ffffffffffffffffffffffffffffffffffffffff16815250600360008381526020019081526020016000206000820151816000015560208201518160010190816116fe9190613122565b5060408201518160020160006101000a81548173ffffffffffffffffffffffffffffffffffffffff021916908373ffffffffffffffffffffffffffffffffffffffff16021790555060608201518160030160006101000a81548173ffffffffffffffffffffffffffffffffffffffff021916908373ffffffffffffffffffffffffffffffffffffffff1602179055509050507fe649b25ea418284e682d98726ce07ccc7a6a926d3cdac495942354deca6627433382846040516117c3939291906131f4565b60405180910390a15050565b6117da338383611a8d565b5050565b803373ffffffffffffffffffffffffffffffffffffffff166003600083815260200190815260200160002060020160009054906101000a900473ffffffffffffffffffffffffffffffffffffffff1673ffffffffffffffffffffffffffffffffffffffff1614611883576040517f08c379a000000000000000000000000000000000000000000000000000000000815260040161187a90612baa565b60405180910390fd5b60008433604051602001611898929190613232565b604051602081830303815290604052805190602001209050600073ffffffffffffffffffffffffffffffffffffffff166004600083815260200190815260200160002060020160009054906101000a900473ffffffffffffffffffffffffffffffffffffffff1673ffffffffffffffffffffffffffffffffffffffff1614611955576040517f08c379a000000000000000000000000000000000000000000000000000000000815260040161194c90612a3d565b60405180910390fd5b60405180606001604052808681526020018581526020013373ffffffffffffffffffffffffffffffffffffffff168152506004600083815260200190815260200160002060008201518160000190816119ae9190613122565b5060208201518160010190816119c49190613122565b5060408201518160020160006101000a81548173ffffffffffffffffffffffffffffffffffffffff021916908373ffffffffffffffffffffffffffffffffffffffff160217905550905050600560008281526020019081526020016000208390806001815401808255809150506001900390600052602060002001600090919091909150557fcfd2f1ce6a9f01c980bd809e3e57288c2527d9448f9f699ca9d6c97f7ad0290433828786604051611a7e9493929190613262565b60405180910390a15050505050565b611a98838383611ddb565b60008273ffffffffffffffffffffffffffffffffffffffff163b1480611b81575063150b7a0260e01b7bffffffffffffffffffffffffffffffffffffffffffffffffffffffff19168273ffffffffffffffffffffffffffffffffffffffff1663150b7a023386856040518463ffffffff1660e01b8152600401611b1d939291906132e5565b6020604051808303816000875af1158015611b3c573d6000803e3d6000fd5b505050506040513d601f19601f82011682018060405250810190611b609190613344565b7bffffffffffffffffffffffffffffffffffffffffffffffffffffffff1916145b611bc0576040517f08c379a0000000000000000000000000000000000000000000000000000000008152600401611bb7906133bd565b60405180910390fd5b505050565b600073ffffffffffffffffffffffffffffffffffffffff168273ffffffffffffffffffffffffffffffffffffffff1603611c34576040517f08c379a0000000000000000000000000000000000000000000000000000000008152600401611c2b90613429565b60405180910390fd5b600073ffffffffffffffffffffffffffffffffffffffff1660008083815260200190815260200160002060009054906101000a900473ffffffffffffffffffffffffffffffffffffffff1673ffffffffffffffffffffffffffffffffffffffff1614611cd5576040517f08c379a0000000000000000000000000000000000000000000000000000000008152600401611ccc90613495565b60405180910390fd5b600160008373ffffffffffffffffffffffffffffffffffffffff1673ffffffffffffffffffffffffffffffffffffffff1681526020019081526020016000206000815480929190611d2590612f2e565b91905055508160008083815260200190815260200160002060006101000a81548173ffffffffffffffffffffffffffffffffffffffff021916908373ffffffffffffffffffffffffffffffffffffffff160217905550808273ffffffffffffffffffffffffffffffffffffffff16600073ffffffffffffffffffffffffffffffffffffffff167fddf252ad1be2c89b69c2b068fc378daa952ba7f163c4a11628f55a4df523b3ef60405160405180910390a45050565b60008082815260200190815260200160002060009054906101000a900473ffffffffffffffffffffffffffffffffffffffff1673ffffffffffffffffffffffffffffffffffffffff168373ffffffffffffffffffffffffffffffffffffffff1614611e7b576040517f08c379a0000000000000000000000000000000000000000000000000000000008152600401611e7290613501565b60405180910390fd5b600073ffffffffffffffffffffffffffffffffffffffff168273ffffffffffffffffffffffffffffffffffffffff1603611eea576040517f08c379a0000000000000000000000000000000000000000000000000000000008152600401611ee190613429565b60405180910390fd5b600160008473ffffffffffffffffffffffffffffffffffffffff1673ffffffffffffffffffffffffffffffffffffffff1681526020019081526020016000206000815480929190611f3a906129c8565b9190505550600160008373ffffffffffffffffffffffffffffffffffffffff1673ffffffffffffffffffffffffffffffffffffffff1681526020019081526020016000206000815480929190611f8f90612f2e565b91905055508160008083815260200190815260200160002060006101000a81548173ffffffffffffffffffffffffffffffffffffffff021916908373ffffffffffffffffffffffffffffffffffffffff160217905550808273ffffffffffffffffffffffffffffffffffffffff168473ffffffffffffffffffffffffffffffffffffffff167fddf252ad1be2c89b69c2b068fc378daa952ba7f163c4a11628f55a4df523b3ef60405160405180910390a4505050565b50805461205190612dfc565b6000825580601f106120635750612082565b601f01602090049060005260206000209081019061208191906120bc565b5b50565b60405180606001604052806060815260200160608152602001600073ffffffffffffffffffffffffffffffffffffffff1681525090565b5b808211156120d55760008160009055506001016120bd565b5090565b6000604051905090565b600080fd5b600080fd5b6000819050919050565b612100816120ed565b811461210b57600080fd5b50565b60008135905061211d816120f7565b92915050565b600060208284031215612139576121386120e3565b5b60006121478482850161210e565b91505092915050565b600081519050919050565b600082825260208201905092915050565b6000819050602082019050919050565b6000819050919050565b61218f8161217c565b82525050565b60006121a18383612186565b60208301905092915050565b6000602082019050919050565b60006121c582612150565b6121cf818561215b565b93506121da8361216c565b8060005b8381101561220b5781516121f28882612195565b97506121fd836121ad565b9250506001810190506121de565b5085935050505092915050565b6000602082019050818103600083015261223281846121ba565b905092915050565b6122438161217c565b811461224e57600080fd5b50565b6000813590506122608161223a565b92915050565b60006020828403121561227c5761227b6120e3565b5b600061228a84828501612251565b91505092915050565b61229c8161217c565b82525050565b60006020820190506122b76000830184612293565b92915050565b600073ffffffffffffffffffffffffffffffffffffffff82169050919050565b60006122e8826122bd565b9050919050565b6122f8816122dd565b82525050565b600060208201905061231360008301846122ef565b92915050565b612322816122dd565b811461232d57600080fd5b50565b60008135905061233f81612319565b92915050565b60006020828403121561235b5761235a6120e3565b5b600061236984828501612330565b91505092915050565b60007fffffffff0000000000000000000000000000000000000000000000000000000082169050919050565b6123a781612372565b81146123b257600080fd5b50565b6000813590506123c48161239e565b92915050565b6000602082840312156123e0576123df6120e3565b5b60006123ee848285016123b5565b91505092915050565b60008115159050919050565b61240c816123f7565b82525050565b60006020820190506124276000830184612403565b92915050565b60008060408385031215612444576124436120e3565b5b60006124528582860161210e565b925050602061246385828601612251565b9150509250929050565b60008060408385031215612484576124836120e3565b5b600061249285828601612330565b92505060206124a38582860161210e565b9150509250929050565b600080fd5b600080fd5b6000601f19601f8301169050919050565b7f4e487b7100000000000000000000000000000000000000000000000000000000600052604160045260246000fd5b612500826124b7565b810181811067ffffffffffffffff8211171561251f5761251e6124c8565b5b80604052505050565b60006125326120d9565b905061253e82826124f7565b919050565b600067ffffffffffffffff82111561255e5761255d6124c8565b5b612567826124b7565b9050602081019050919050565b82818337600083830152505050565b600061259661259184612543565b612528565b9050828152602081018484840111156125b2576125b16124b2565b5b6125bd848285612574565b509392505050565b600082601f8301126125da576125d96124ad565b5b81356125ea848260208601612583565b91505092915050565b6000806040838503121561260a576126096120e3565b5b600083013567ffffffffffffffff811115612628576126276120e8565b5b612634858286016125c5565b925050602083013567ffffffffffffffff811115612655576126546120e8565b5b612661858286016125c5565b9150509250929050565b612674816120ed565b82525050565b600060208201905061268f600083018461266b565b92915050565b600081519050919050565b600082825260208201905092915050565b60005b838110156126cf5780820151818401526020810190506126b4565b60008484015250505050565b60006126e682612695565b6126f081856126a0565b93506127008185602086016126b1565b612709816124b7565b840191505092915050565b61271d816122dd565b82525050565b6000606083016000830151848203600086015261274082826126db565b9150506020830151848203602086015261275a82826126db565b915050604083015161276f6040860182612714565b508091505092915050565b600060208201905081810360008301526127948184612723565b905092915050565b6000602082840312156127b2576127b16120e3565b5b600082013567ffffffffffffffff8111156127d0576127cf6120e8565b5b6127dc848285016125c5565b91505092915050565b600080604083850312156127fc576127fb6120e3565b5b600061280a85828601612330565b925050602061281b85828601612251565b9150509250929050565b60008060006060848603121561283e5761283d6120e3565b5b600084013567ffffffffffffffff81111561285c5761285b6120e8565b5b612868868287016125c5565b935050602084013567ffffffffffffffff811115612889576128886120e8565b5b612895868287016125c5565b92505060406128a686828701612251565b9150509250925092565b600082825260208201905092915050565b7f4e6f742061207265736f75726365206f776e6572000000000000000000000000600082015250565b60006128f76014836128b0565b9150612902826128c1565b602082019050919050565b60006020820190508181036000830152612926816128ea565b9050919050565b7f546f6b656e20646f6573206e6f74206578697374000000000000000000000000600082015250565b60006129636014836128b0565b915061296e8261292d565b602082019050919050565b6000602082019050818103600083015261299281612956565b9050919050565b7f4e487b7100000000000000000000000000000000000000000000000000000000600052601160045260246000fd5b60006129d38261217c565b9150600082036129e6576129e5612999565b5b600182039050919050565b7f5265736f7572636520616c726561647920657869737473000000000000000000600082015250565b6000612a276017836128b0565b9150612a32826129f1565b602082019050919050565b60006020820190508181036000830152612a5681612a1a565b9050919050565b6000604082019050612a7260008301856122ef565b612a7f602083018461266b565b9392505050565b7f4e6f742065786973740000000000000000000000000000000000000000000000600082015250565b6000612abc6009836128b0565b9150612ac782612a86565b602082019050919050565b60006020820190508181036000830152612aeb81612aaf565b9050919050565b7f5a65726f20616464726573730000000000000000000000000000000000000000600082015250565b6000612b28600c836128b0565b9150612b3382612af2565b602082019050919050565b60006020820190508181036000830152612b5781612b1b565b9050919050565b7f4e4654206973206e6f74206f776e656420627920796f75000000000000000000600082015250565b6000612b946017836128b0565b9150612b9f82612b5e565b602082019050919050565b60006020820190508181036000830152612bc381612b87565b9050919050565b7f4e487b7100000000000000000000000000000000000000000000000000000000600052603260045260246000fd5b7f416c726561647920616464656400000000000000000000000000000000000000600082015250565b6000612c2f600d836128b0565b9150612c3a82612bf9565b602082019050919050565b60006020820190508181036000830152612c5e81612c22565b9050919050565b6000604082019050612c7a600083018561266b565b612c876020830184612293565b9392505050565b7f5265736f7572636520646f6573206e6f74206578697374730000000000000000600082015250565b6000612cc46018836128b0565b9150612ccf82612c8e565b602082019050919050565b60006020820190508181036000830152612cf381612cb7565b9050919050565b6000612d0582612695565b612d0f81856128b0565b9350612d1f8185602086016126b1565b612d28816124b7565b840191505092915050565b60006040820190508181036000830152612d4d8185612cfa565b90508181036020830152612d618184612cfa565b90509392505050565b6000612d758261217c565b9150612d808361217c565b9250828203905081811115612d9857612d97612999565b5b92915050565b7f4e487b7100000000000000000000000000000000000000000000000000000000600052603160045260246000fd5b7f4e487b7100000000000000000000000000000000000000000000000000000000600052602260045260246000fd5b60006002820490506001821680612e1457607f821691505b602082108103612e2757612e26612dcd565b5b50919050565b7f596f7520646f206e6f7420686176652061636365737300000000000000000000600082015250565b6000612e636016836128b0565b9150612e6e82612e2d565b602082019050919050565b60006020820190508181036000830152612e9281612e56565b9050919050565b7f596f7520616c726561647920686f6c642074686973206b657900000000000000600082015250565b6000612ecf6019836128b0565b9150612eda82612e99565b602082019050919050565b60006020820190508181036000830152612efe81612ec2565b9050919050565b6000604082019050612f1a60008301856122ef565b612f276020830184612293565b9392505050565b6000612f398261217c565b91507fffffffffffffffffffffffffffffffffffffffffffffffffffffffffffffffff8203612f6b57612f6a612999565b5b600182019050919050565b60008190508160005260206000209050919050565b60006020601f8301049050919050565b600082821b905092915050565b600060088302612fd87fffffffffffffffffffffffffffffffffffffffffffffffffffffffffffffffff82612f9b565b612fe28683612f9b565b95508019841693508086168417925050509392505050565b6000819050919050565b600061301f61301a6130158461217c565b612ffa565b61217c565b9050919050565b6000819050919050565b61303983613004565b61304d61304582613026565b848454612fa8565b825550505050565b600090565b613062613055565b61306d818484613030565b505050565b5b818110156130915761308660008261305a565b600181019050613073565b5050565b601f8211156130d6576130a781612f76565b6130b084612f8b565b810160208510156130bf578190505b6130d36130cb85612f8b565b830182613072565b50505b505050565b600082821c905092915050565b60006130f9600019846008026130db565b1980831691505092915050565b600061311283836130e8565b9150826002028217905092915050565b61312b82612695565b67ffffffffffffffff811115613144576131436124c8565b5b61314e8254612dfc565b613159828285613095565b600060209050601f83116001811461318c576000841561317a578287015190505b6131848582613106565b8655506131ec565b601f19841661319a86612f76565b60005b828110156131c25784890151825560018201915060208501945060208101905061319d565b868310156131df57848901516131db601f8916826130e8565b8355505b6001600288020188555050505b505050505050565b600060608201905061320960008301866122ef565b6132166020830185612293565b81810360408301526132288184612cfa565b9050949350505050565b6000604082019050818103600083015261324c8185612cfa565b905061325b60208301846122ef565b9392505050565b600060808201905061327760008301876122ef565b613284602083018661266b565b81810360408301526132968185612cfa565b90506132a56060830184612293565b95945050505050565b600082825260208201905092915050565b50565b60006132cf6000836132ae565b91506132da826132bf565b600082019050919050565b60006080820190506132fa60008301866122ef565b61330760208301856122ef565b6133146040830184612293565b8181036060830152613325816132c2565b9050949350505050565b60008151905061333e8161239e565b92915050565b60006020828403121561335a576133596120e3565b5b60006133688482850161332f565b91505092915050565b7f556e7361666520726563697069656e7400000000000000000000000000000000600082015250565b60006133a76010836128b0565b91506133b282613371565b602082019050919050565b600060208201905081810360008301526133d68161339a565b9050919050565b7f5a65726f20416464726573730000000000000000000000000000000000000000600082015250565b6000613413600c836128b0565b915061341e826133dd565b602082019050919050565b6000602082019050818103600083015261344281613406565b9050919050565b7f416c726561647920457869737473000000000000000000000000000000000000600082015250565b600061347f600e836128b0565b915061348a82613449565b602082019050919050565b600060208201905081810360008301526134ae81613472565b9050919050565b7f46726f6d20213d206f776e657200000000000000000000000000000000000000600082015250565b60006134eb600d836128b0565b91506134f6826134b5565b602082019050919050565b6000602082019050818103600083015261351a816134de565b905091905056fea264697066735822122094b96e5deacbb473e30f1466fa0019a9f3c3e6f2415dea81fad511f02d19770e64736f6c634300081c0033",
  "linkReferences": {},
  "deployedLinkReferences": {}
}